{
  "_format": "hh-sol-artifact-1",
  "contractName": "ERC1155BePay",
  "sourceName": "contracts/nfts/erc-1155/ERC1155BePay.sol",
  "abi": [
    {
      "anonymous": false,
      "inputs": [
        {
          "indexed": true,
          "internalType": "address",
          "name": "account",
          "type": "address"
        },
        {
          "indexed": true,
          "internalType": "address",
          "name": "operator",
          "type": "address"
        },
        {
          "indexed": false,
          "internalType": "bool",
          "name": "approved",
          "type": "bool"
        }
      ],
      "name": "ApprovalForAll",
      "type": "event"
    },
    {
      "anonymous": false,
      "inputs": [
        {
          "indexed": true,
          "internalType": "address",
          "name": "operator",
          "type": "address"
        },
        {
          "indexed": true,
          "internalType": "address",
          "name": "account",
          "type": "address"
        },
        {
          "indexed": false,
          "internalType": "uint256",
          "name": "id",
          "type": "uint256"
        },
        {
          "indexed": false,
          "internalType": "uint256",
          "name": "amount",
          "type": "uint256"
        }
      ],
      "name": "BurnLazy",
      "type": "event"
    },
    {
      "anonymous": false,
      "inputs": [
        {
          "indexed": true,
          "internalType": "address",
          "name": "operator",
          "type": "address"
        },
        {
          "indexed": true,
          "internalType": "address",
          "name": "account",
          "type": "address"
        },
        {
          "indexed": false,
          "internalType": "uint256[]",
          "name": "ids",
          "type": "uint256[]"
        },
        {
          "indexed": false,
          "internalType": "uint256[]",
          "name": "amounts",
          "type": "uint256[]"
        }
      ],
      "name": "BurnLazyBatch",
      "type": "event"
    },
    {
      "anonymous": false,
      "inputs": [
        {
          "indexed": false,
          "internalType": "address",
          "name": "owner",
          "type": "address"
        },
        {
          "indexed": false,
          "internalType": "string",
          "name": "name",
          "type": "string"
        },
        {
          "indexed": false,
          "internalType": "string",
          "name": "symbol",
          "type": "string"
        }
      ],
      "name": "CreateERC1155BePay",
      "type": "event"
    },
    {
      "anonymous": false,
      "inputs": [
        {
          "indexed": false,
          "internalType": "address",
          "name": "owner",
          "type": "address"
        },
        {
          "indexed": false,
          "internalType": "string",
          "name": "name",
          "type": "string"
        },
        {
          "indexed": false,
          "internalType": "string",
          "name": "symbol",
          "type": "string"
        }
      ],
      "name": "CreateERC1155BePayUser",
      "type": "event"
    },
    {
      "anonymous": false,
      "inputs": [
        {
          "indexed": false,
          "internalType": "uint256",
          "name": "tokenId",
          "type": "uint256"
        },
        {
          "components": [
            {
              "internalType": "address",
              "name": "account",
              "type": "address"
            },
            {
              "internalType": "uint256",
              "name": "value",
              "type": "uint256"
            }
          ],
          "indexed": false,
          "internalType": "struct LibPayout.Payout[]",
          "name": "creators",
          "type": "tuple[]"
        }
      ],
      "name": "Creators",
      "type": "event"
    },
    {
      "anonymous": false,
      "inputs": [
        {
          "indexed": true,
          "internalType": "address",
          "name": "operator",
          "type": "address"
        },
        {
          "indexed": false,
          "internalType": "bool",
          "name": "hasApproval",
          "type": "bool"
        }
      ],
      "name": "DefaultApproval",
      "type": "event"
    },
    {
      "anonymous": false,
      "inputs": [
        {
          "indexed": true,
          "internalType": "address",
          "name": "previousOwner",
          "type": "address"
        },
        {
          "indexed": true,
          "internalType": "address",
          "name": "newOwner",
          "type": "address"
        }
      ],
      "name": "OwnershipTransferred",
      "type": "event"
    },
    {
      "anonymous": false,
      "inputs": [
        {
          "indexed": false,
          "internalType": "uint256",
          "name": "tokenId",
          "type": "uint256"
        },
        {
          "components": [
            {
              "internalType": "address",
              "name": "account",
              "type": "address"
            },
            {
              "internalType": "uint256",
              "name": "value",
              "type": "uint256"
            }
          ],
          "indexed": false,
          "internalType": "struct LibPayout.Payout[]",
          "name": "royalties",
          "type": "tuple[]"
        }
      ],
      "name": "RoyaltiesSet",
      "type": "event"
    },
    {
      "anonymous": false,
      "inputs": [
        {
          "indexed": false,
          "internalType": "uint256",
          "name": "tokenId",
          "type": "uint256"
        },
        {
          "indexed": false,
          "internalType": "uint256",
          "name": "value",
          "type": "uint256"
        }
      ],
      "name": "Supply",
      "type": "event"
    },
    {
      "anonymous": false,
      "inputs": [
        {
          "indexed": true,
          "internalType": "address",
          "name": "operator",
          "type": "address"
        },
        {
          "indexed": true,
          "internalType": "address",
          "name": "from",
          "type": "address"
        },
        {
          "indexed": true,
          "internalType": "address",
          "name": "to",
          "type": "address"
        },
        {
          "indexed": false,
          "internalType": "uint256[]",
          "name": "ids",
          "type": "uint256[]"
        },
        {
          "indexed": false,
          "internalType": "uint256[]",
          "name": "values",
          "type": "uint256[]"
        }
      ],
      "name": "TransferBatch",
      "type": "event"
    },
    {
      "anonymous": false,
      "inputs": [
        {
          "indexed": true,
          "internalType": "address",
          "name": "operator",
          "type": "address"
        },
        {
          "indexed": true,
          "internalType": "address",
          "name": "from",
          "type": "address"
        },
        {
          "indexed": true,
          "internalType": "address",
          "name": "to",
          "type": "address"
        },
        {
          "indexed": false,
          "internalType": "uint256",
          "name": "id",
          "type": "uint256"
        },
        {
          "indexed": false,
          "internalType": "uint256",
          "name": "value",
          "type": "uint256"
        }
      ],
      "name": "TransferSingle",
      "type": "event"
    },
    {
      "anonymous": false,
      "inputs": [
        {
          "indexed": false,
          "internalType": "string",
          "name": "value",
          "type": "string"
        },
        {
          "indexed": true,
          "internalType": "uint256",
          "name": "id",
          "type": "uint256"
        }
      ],
      "name": "URI",
      "type": "event"
    },
    {
      "inputs": [
        {
          "internalType": "string",
          "name": "_name",
          "type": "string"
        },
        {
          "internalType": "string",
          "name": "_symbol",
          "type": "string"
        },
        {
          "internalType": "string",
          "name": "baseURI",
          "type": "string"
        },
        {
          "internalType": "string",
          "name": "contractURI",
          "type": "string"
        },
        {
          "internalType": "address[]",
          "name": "operators",
          "type": "address[]"
        },
        {
          "internalType": "address",
          "name": "transferProxy",
          "type": "address"
        },
        {
          "internalType": "address",
          "name": "lazyTransferProxy",
          "type": "address"
        }
      ],
      "name": "__ERC1155BePayUser_init",
      "outputs": [],
      "stateMutability": "nonpayable",
      "type": "function"
    },
    {
      "inputs": [
        {
          "internalType": "string",
          "name": "_name",
          "type": "string"
        },
        {
          "internalType": "string",
          "name": "_symbol",
          "type": "string"
        },
        {
          "internalType": "string",
          "name": "baseURI",
          "type": "string"
        },
        {
          "internalType": "string",
          "name": "contractURI",
          "type": "string"
        },
        {
          "internalType": "address",
          "name": "transferProxy",
          "type": "address"
        },
        {
          "internalType": "address",
          "name": "lazyTransferProxy",
          "type": "address"
        }
      ],
      "name": "__ERC1155BePay_init",
      "outputs": [],
      "stateMutability": "nonpayable",
      "type": "function"
    },
    {
      "inputs": [
        {
          "internalType": "address",
          "name": "account",
          "type": "address"
        },
        {
          "internalType": "uint256",
          "name": "id",
          "type": "uint256"
        }
      ],
      "name": "balanceOf",
      "outputs": [
        {
          "internalType": "uint256",
          "name": "",
          "type": "uint256"
        }
      ],
      "stateMutability": "view",
      "type": "function"
    },
    {
      "inputs": [
        {
          "internalType": "address[]",
          "name": "accounts",
          "type": "address[]"
        },
        {
          "internalType": "uint256[]",
          "name": "ids",
          "type": "uint256[]"
        }
      ],
      "name": "balanceOfBatch",
      "outputs": [
        {
          "internalType": "uint256[]",
          "name": "",
          "type": "uint256[]"
        }
      ],
      "stateMutability": "view",
      "type": "function"
    },
    {
      "inputs": [],
      "name": "baseURI",
      "outputs": [
        {
          "internalType": "string",
          "name": "",
          "type": "string"
        }
      ],
      "stateMutability": "view",
      "type": "function"
    },
    {
      "inputs": [
        {
          "internalType": "address",
          "name": "account",
          "type": "address"
        },
        {
          "internalType": "uint256",
          "name": "id",
          "type": "uint256"
        },
        {
          "internalType": "uint256",
          "name": "amount",
          "type": "uint256"
        }
      ],
      "name": "burn",
      "outputs": [],
      "stateMutability": "nonpayable",
      "type": "function"
    },
    {
      "inputs": [
        {
          "internalType": "address",
          "name": "account",
          "type": "address"
        },
        {
          "internalType": "uint256[]",
          "name": "ids",
          "type": "uint256[]"
        },
        {
          "internalType": "uint256[]",
          "name": "amounts",
          "type": "uint256[]"
        }
      ],
      "name": "burnBatch",
      "outputs": [],
      "stateMutability": "nonpayable",
      "type": "function"
    },
    {
      "inputs": [],
      "name": "contractURI",
      "outputs": [
        {
          "internalType": "string",
          "name": "",
          "type": "string"
        }
      ],
      "stateMutability": "view",
      "type": "function"
    },
    {
      "inputs": [
        {
          "internalType": "uint256",
          "name": "",
          "type": "uint256"
        },
        {
          "internalType": "uint256",
          "name": "",
          "type": "uint256"
        }
      ],
      "name": "creators",
      "outputs": [
        {
          "internalType": "address",
          "name": "account",
          "type": "address"
        },
        {
          "internalType": "uint256",
          "name": "value",
          "type": "uint256"
        }
      ],
      "stateMutability": "view",
      "type": "function"
    },
    {
      "inputs": [
        {
          "internalType": "uint256",
          "name": "id",
          "type": "uint256"
        }
      ],
      "name": "getBePayRoyalties",
      "outputs": [
        {
          "components": [
            {
              "internalType": "address",
              "name": "account",
              "type": "address"
            },
            {
              "internalType": "uint256",
              "name": "value",
              "type": "uint256"
            }
          ],
          "internalType": "struct LibPayout.Payout[]",
          "name": "",
          "type": "tuple[]"
        }
      ],
      "stateMutability": "view",
      "type": "function"
    },
    {
      "inputs": [
        {
          "internalType": "uint256",
          "name": "_id",
          "type": "uint256"
        }
      ],
      "name": "getCreators",
      "outputs": [
        {
          "components": [
            {
              "internalType": "address",
              "name": "account",
              "type": "address"
            },
            {
              "internalType": "uint256",
              "name": "value",
              "type": "uint256"
            }
          ],
          "internalType": "struct LibPayout.Payout[]",
          "name": "",
          "type": "tuple[]"
        }
      ],
      "stateMutability": "view",
      "type": "function"
    },
    {
      "inputs": [
        {
          "internalType": "address",
          "name": "_owner",
          "type": "address"
        },
        {
          "internalType": "address",
          "name": "_operator",
          "type": "address"
        }
      ],
      "name": "isApprovedForAll",
      "outputs": [
        {
          "internalType": "bool",
          "name": "",
          "type": "bool"
        }
      ],
      "stateMutability": "view",
      "type": "function"
    },
    {
      "inputs": [
        {
          "components": [
            {
              "internalType": "uint256",
              "name": "tokenId",
              "type": "uint256"
            },
            {
              "internalType": "string",
              "name": "tokenURI",
              "type": "string"
            },
            {
              "internalType": "uint256",
              "name": "supply",
              "type": "uint256"
            },
            {
              "components": [
                {
                  "internalType": "address",
                  "name": "account",
                  "type": "address"
                },
                {
                  "internalType": "uint256",
                  "name": "value",
                  "type": "uint256"
                }
              ],
              "internalType": "struct LibPayout.Payout[]",
              "name": "creators",
              "type": "tuple[]"
            },
            {
              "components": [
                {
                  "internalType": "address",
                  "name": "account",
                  "type": "address"
                },
                {
                  "internalType": "uint256",
                  "name": "value",
                  "type": "uint256"
                }
              ],
              "internalType": "struct LibPayout.Payout[]",
              "name": "royalties",
              "type": "tuple[]"
            },
            {
              "internalType": "bytes[]",
              "name": "signatures",
              "type": "bytes[]"
            }
          ],
          "internalType": "struct LibERC1155LazyMint.Mint1155Data",
          "name": "data",
          "type": "tuple"
        },
        {
          "internalType": "address",
          "name": "to",
          "type": "address"
        },
        {
          "internalType": "uint256",
          "name": "_amount",
          "type": "uint256"
        }
      ],
      "name": "mintAndTransfer",
      "outputs": [],
      "stateMutability": "nonpayable",
      "type": "function"
    },
    {
      "inputs": [],
      "name": "name",
      "outputs": [
        {
          "internalType": "string",
          "name": "",
          "type": "string"
        }
      ],
      "stateMutability": "view",
      "type": "function"
    },
    {
      "inputs": [],
      "name": "owner",
      "outputs": [
        {
          "internalType": "address",
          "name": "",
          "type": "address"
        }
      ],
      "stateMutability": "view",
      "type": "function"
    },
    {
      "inputs": [],
      "name": "renounceOwnership",
      "outputs": [],
      "stateMutability": "nonpayable",
      "type": "function"
    },
    {
      "inputs": [
        {
          "internalType": "address",
          "name": "from",
          "type": "address"
        },
        {
          "internalType": "address",
          "name": "to",
          "type": "address"
        },
        {
          "internalType": "uint256[]",
          "name": "ids",
          "type": "uint256[]"
        },
        {
          "internalType": "uint256[]",
          "name": "amounts",
          "type": "uint256[]"
        },
        {
          "internalType": "bytes",
          "name": "data",
          "type": "bytes"
        }
      ],
      "name": "safeBatchTransferFrom",
      "outputs": [],
      "stateMutability": "nonpayable",
      "type": "function"
    },
    {
      "inputs": [
        {
          "internalType": "address",
          "name": "from",
          "type": "address"
        },
        {
          "internalType": "address",
          "name": "to",
          "type": "address"
        },
        {
          "internalType": "uint256",
          "name": "id",
          "type": "uint256"
        },
        {
          "internalType": "uint256",
          "name": "amount",
          "type": "uint256"
        },
        {
          "internalType": "bytes",
          "name": "data",
          "type": "bytes"
        }
      ],
      "name": "safeTransferFrom",
      "outputs": [],
      "stateMutability": "nonpayable",
      "type": "function"
    },
    {
      "inputs": [
        {
          "internalType": "address",
          "name": "operator",
          "type": "address"
        },
        {
          "internalType": "bool",
          "name": "approved",
          "type": "bool"
        }
      ],
      "name": "setApprovalForAll",
      "outputs": [],
      "stateMutability": "nonpayable",
      "type": "function"
    },
    {
      "inputs": [
        {
          "internalType": "address",
          "name": "operator",
          "type": "address"
        },
        {
          "internalType": "bool",
          "name": "hasApproval",
          "type": "bool"
        }
      ],
      "name": "setDefaultApproval",
      "outputs": [],
      "stateMutability": "nonpayable",
      "type": "function"
    },
    {
      "inputs": [
        {
          "internalType": "bytes4",
          "name": "interfaceId",
          "type": "bytes4"
        }
      ],
      "name": "supportsInterface",
      "outputs": [
        {
          "internalType": "bool",
          "name": "",
          "type": "bool"
        }
      ],
      "stateMutability": "view",
      "type": "function"
    },
    {
      "inputs": [],
      "name": "symbol",
      "outputs": [
        {
          "internalType": "string",
          "name": "",
          "type": "string"
        }
      ],
      "stateMutability": "view",
      "type": "function"
    },
    {
      "inputs": [
        {
          "components": [
            {
              "internalType": "uint256",
              "name": "tokenId",
              "type": "uint256"
            },
            {
              "internalType": "string",
              "name": "tokenURI",
              "type": "string"
            },
            {
              "internalType": "uint256",
              "name": "supply",
              "type": "uint256"
            },
            {
              "components": [
                {
                  "internalType": "address",
                  "name": "account",
                  "type": "address"
                },
                {
                  "internalType": "uint256",
                  "name": "value",
                  "type": "uint256"
                }
              ],
              "internalType": "struct LibPayout.Payout[]",
              "name": "creators",
              "type": "tuple[]"
            },
            {
              "components": [
                {
                  "internalType": "address",
                  "name": "account",
                  "type": "address"
                },
                {
                  "internalType": "uint256",
                  "name": "value",
                  "type": "uint256"
                }
              ],
              "internalType": "struct LibPayout.Payout[]",
              "name": "royalties",
              "type": "tuple[]"
            },
            {
              "internalType": "bytes[]",
              "name": "signatures",
              "type": "bytes[]"
            }
          ],
          "internalType": "struct LibERC1155LazyMint.Mint1155Data",
          "name": "data",
          "type": "tuple"
        },
        {
          "internalType": "address",
          "name": "from",
          "type": "address"
        },
        {
          "internalType": "address",
          "name": "to",
          "type": "address"
        },
        {
          "internalType": "uint256",
          "name": "amount",
          "type": "uint256"
        }
      ],
      "name": "transferFromOrMint",
      "outputs": [],
      "stateMutability": "nonpayable",
      "type": "function"
    },
    {
      "inputs": [
        {
          "internalType": "address",
          "name": "newOwner",
          "type": "address"
        }
      ],
      "name": "transferOwnership",
      "outputs": [],
      "stateMutability": "nonpayable",
      "type": "function"
    },
    {
      "inputs": [
        {
          "internalType": "uint256",
          "name": "_id",
          "type": "uint256"
        },
        {
          "internalType": "address",
          "name": "_from",
          "type": "address"
        },
        {
          "internalType": "address",
          "name": "_to",
          "type": "address"
        }
      ],
      "name": "updateAccount",
      "outputs": [],
      "stateMutability": "nonpayable",
      "type": "function"
    },
    {
      "inputs": [
        {
          "internalType": "uint256",
          "name": "id",
          "type": "uint256"
        }
      ],
      "name": "uri",
      "outputs": [
        {
          "internalType": "string",
          "name": "",
          "type": "string"
        }
      ],
      "stateMutability": "view",
      "type": "function"
    }
  ],
  "bytecode": "0x608060405234801561001057600080fd5b50614f66806100206000396000f3fe608060405234801561001057600080fd5b50600436106101ad5760003560e01c80638bd1d7d0116100ee578063e07f231911610097578063eaabde7211610071578063eaabde7214610390578063f242432a146103a3578063f2fde38b146103b6578063f5298aca146103c957600080fd5b8063e07f231914610362578063e8a3d48514610375578063e985e9c51461037d57600080fd5b806398d0b4fb116100c857806398d0b4fb1461030a578063a22cb4651461033c578063b0a89dd81461034f57600080fd5b80638bd1d7d0146102d45780638da5cb5b146102e757806395d89b411461030257600080fd5b806318054c371161015b5780636b20c454116101355780636b20c454146102915780636c0360eb146102a4578063715018a6146102ac578063891be974146102b457600080fd5b806318054c371461024b5780632eb2c2d61461025e5780634e1273f41461027157600080fd5b8063051d261c1161018c578063051d261c1461021057806306fdde03146102235780630e89341c1461023857600080fd5b8062fdd58e146101b257806301ffc9a7146101d857806303cdfd58146101fb575b600080fd5b6101c56101c0366004614651565b6103dc565b6040519081526020015b60405180910390f35b6101eb6101e636600461470d565b61048b565b60405190151581526020016101cf565b61020e61020936600461480d565b610496565b005b61020e61021e36600461495e565b610604565b61022b6106c2565b6040516101cf9190614c6e565b61022b6102463660046149b3565b610751565b61020e610259366004614617565b61075c565b61020e61026c36600461449d565b6107c4565b61028461027f3660046146ac565b610a90565b6040516101cf9190614c1d565b61020e61029f3660046145a6565b610c06565b61022b610e40565b61020e610ed3565b6102c76102c23660046149b3565b610f39565b6040516101cf9190614c0a565b6102c76102e23660046149b3565b610fc2565b6033546040516001600160a01b0390911681526020016101cf565b61022b611036565b61031d610318366004614a06565b611044565b604080516001600160a01b0390931683526020830191909152016101cf565b61020e61034a366004614617565b61108b565b61020e61035d366004614745565b611177565b61020e6103703660046149cb565b61128a565b61022b6112ed565b6101eb61038b36600461446b565b6112fb565b61020e61039e3660046148fa565b61130e565b61020e6103b1366004614543565b611372565b61020e6103c4366004614451565b61154e565b61020e6103d736600461467a565b611630565b60006001600160a01b03831661045f5760405162461bcd60e51b815260206004820152602b60248201527f455243313135353a2062616c616e636520717565727920666f7220746865207a60448201527f65726f206164647265737300000000000000000000000000000000000000000060648201526084015b60405180910390fd5b50600081815261012f602090815260408083206001600160a01b03861684529091529020545b92915050565b60006104858261169c565b600054610100900460ff166104b15760005460ff16156104b5565b303b155b6105185760405162461bcd60e51b815260206004820152602e60248201527f496e697469616c697a61626c653a20636f6e747261637420697320616c72656160448201526d191e481a5b9a5d1a585b1a5e995960921b6064820152608401610456565b600054610100900460ff1615801561053a576000805461ffff19166101011790555b6105488888888887876117a0565b60005b84518110156105985761058685828151811061057757634e487b7160e01b600052603260045260246000fd5b6020026020010151600161108b565b8061059081614e07565b91505061054b565b50610299805460ff191660011790557fce8cc149ef1883b83128990cdd212675e8a51176ef33834ab6b3d78345b8cb8d6105cf3390565b89896040516105e093929190614bd6565b60405180910390a180156105fa576000805461ff00191690555b5050505050505050565b6102995460ff16156106b257826060015160008151811061063557634e487b7160e01b600052603260045260246000fd5b6020026020010151600001516001600160a01b031661065c6033546001600160a01b031690565b6001600160a01b0316146106b25760405162461bcd60e51b815260206004820152601760248201527f6d696e746572206973206e6f7420746865206f776e65720000000000000000006044820152606401610456565b6106bd83838361181a565b505050565b61026580546106d090614d79565b80601f01602080910402602001604051908101604052809291908181526020018280546106fc90614d79565b80156107495780601f1061071e57610100808354040283529160200191610749565b820191906000526020600020905b81548152906001019060200180831161072c57829003601f168201915b505050505081565b606061048582611c48565b6033546001600160a01b031633146107b65760405162461bcd60e51b815260206004820181905260248201527f4f776e61626c653a2063616c6c6572206973206e6f7420746865206f776e65726044820152606401610456565b6107c08282611d50565b5050565b81518351146108265760405162461bcd60e51b815260206004820152602860248201527f455243313135353a2069647320616e6420616d6f756e7473206c656e677468206044820152670dad2e6dac2e8c6d60c31b6064820152608401610456565b6001600160a01b03841661088a5760405162461bcd60e51b815260206004820152602560248201527f455243313135353a207472616e7366657220746f20746865207a65726f206164604482015264647265737360d81b6064820152608401610456565b6001600160a01b0385163314806108a657506108a685336112fb565b6109185760405162461bcd60e51b815260206004820152603260248201527f455243313135353a207472616e736665722063616c6c6572206973206e6f742060448201527f6f776e6572206e6f7220617070726f76656400000000000000000000000000006064820152608401610456565b3360005b8451811015610a2257600085828151811061094757634e487b7160e01b600052603260045260246000fd5b60200260200101519050600085838151811061097357634e487b7160e01b600052603260045260246000fd5b602090810291909101810151600084815261012f835260408082206001600160a01b038e16835290935291909120549091506109b0908290614d13565b600083815261012f602090815260408083206001600160a01b038e811685529252808320939093558a16815220546109e9908290614ce7565b600092835261012f602090815260408085206001600160a01b038c1686529091529092209190915550610a1b81614e07565b905061091c565b50846001600160a01b0316866001600160a01b0316826001600160a01b03167f4a39dc06d4c0dbc64b70af90fd698a233a518aa5d07e595d983b8c0526c8f7fb8787604051610a72929190614c30565b60405180910390a4610a88818787878787611db1565b505050505050565b60608151835114610b095760405162461bcd60e51b815260206004820152602960248201527f455243313135353a206163636f756e747320616e6420696473206c656e67746860448201527f206d69736d6174636800000000000000000000000000000000000000000000006064820152608401610456565b6000835167ffffffffffffffff811115610b3357634e487b7160e01b600052604160045260246000fd5b604051908082528060200260200182016040528015610b5c578160200160208202803683370190505b50905060005b8451811015610bfe57610bc3858281518110610b8e57634e487b7160e01b600052603260045260246000fd5b6020026020010151858381518110610bb657634e487b7160e01b600052603260045260246000fd5b60200260200101516103dc565b828281518110610be357634e487b7160e01b600052603260045260246000fd5b6020908102919091010152610bf781614e07565b9050610b62565b509392505050565b8051825114610c685760405162461bcd60e51b815260206004820152602860248201527f455243313135353a2069647320616e6420616d6f756e7473206c656e677468206044820152670dad2e6dac2e8c6d60c31b6064820152608401610456565b6000825167ffffffffffffffff811115610c9257634e487b7160e01b600052604160045260246000fd5b604051908082528060200260200182016040528015610cbb578160200160208202803683370190505b5090506000835167ffffffffffffffff811115610ce857634e487b7160e01b600052604160045260246000fd5b604051908082528060200260200182016040528015610d11578160200160208202803683370190505b50905060005b8451811015610de057610d78858281518110610d4357634e487b7160e01b600052603260045260246000fd5b6020026020010151858381518110610d6b57634e487b7160e01b600052603260045260246000fd5b6020026020010151611f66565b848381518110610d9857634e487b7160e01b600052603260045260246000fd5b60200260200101848481518110610dbf57634e487b7160e01b600052603260045260246000fd5b60209081029190910101919091525280610dd881614e07565b915050610d17565b50610dec858584611fd9565b6001600160a01b038516336001600160a01b03167fcf3391513e21a9d4a0348f8e890080170eba18dc62db35b60d8a518b7088eb3a8684604051610e31929190614c30565b60405180910390a35050505050565b60606101ca8054610e5090614d79565b80601f0160208091040260200160405190810160405280929190818152602001828054610e7c90614d79565b8015610ec95780601f10610e9e57610100808354040283529160200191610ec9565b820191906000526020600020905b815481529060010190602001808311610eac57829003601f168201915b5050505050905090565b6033546001600160a01b03163314610f2d5760405162461bcd60e51b815260206004820181905260248201527f4f776e61626c653a2063616c6c6572206973206e6f7420746865206f776e65726044820152606401610456565b610f37600061205e565b565b60606101fe6000838152602001908152602001600020805480602002602001604051908101604052809291908181526020016000905b82821015610fb7576000848152602090819020604080518082019091526002850290910180546001600160a01b03168252600190810154828401529083529092019101610f6f565b505050509050919050565b60008181526101fd60209081526040808320805482518185028101850190935280835260609492939192909184018215610fb7576000848152602090819020604080518082019091526002850290910180546001600160a01b03168252600190810154828401529083529092019101610f6f565b61026680546106d090614d79565b6101fe602052816000526040600020818154811061106157600080fd5b6000918252602090912060029091020180546001909101546001600160a01b039091169250905082565b336001600160a01b038316141561110a5760405162461bcd60e51b815260206004820152602960248201527f455243313135353a2073657474696e6720617070726f76616c2073746174757360448201527f20666f722073656c6600000000000000000000000000000000000000000000006064820152608401610456565b336000818152610130602090815260408083206001600160a01b03871680855290835292819020805460ff191686151590811790915590519081529192917f17307eab39ab6107e8899845ad3d59bd9653f200f220920489ca2b5937696c31910160405180910390a35050565b600054610100900460ff166111925760005460ff1615611196565b303b155b6111f95760405162461bcd60e51b815260206004820152602e60248201527f496e697469616c697a61626c653a20636f6e747261637420697320616c72656160448201526d191e481a5b9a5d1a585b1a5e995960921b6064820152608401610456565b600054610100900460ff1615801561121b576000805461ffff19166101011790555b6112298787878787876117a0565b610299805460ff191690557f6454d771a1b6d01f4c6b1a15746315e00dc242b467b03e873ab2cb9c21110e8b33888860405161126793929190614bd6565b60405180910390a18015611281576000805461ff00191690555b50505050505050565b336001600160a01b038316146112e25760405162461bcd60e51b815260206004820152600b60248201527f6e6f7420616c6c6f7765640000000000000000000000000000000000000000006044820152606401610456565b6106bd8383836120bd565b61023380546106d090614d79565b600061130783836121b2565b9392505050565b600061131e8486600001516103dc565b90508181156113615782808310156113335750815b611353868689600001518460405180602001604052806000815250611372565b61135d8185614d13565b9150505b8015610a8857610a88868583610604565b6001600160a01b0384166113d65760405162461bcd60e51b815260206004820152602560248201527f455243313135353a207472616e7366657220746f20746865207a65726f206164604482015264647265737360d81b6064820152608401610456565b6001600160a01b0385163314806113f257506113f285336112fb565b6114505760405162461bcd60e51b815260206004820152602960248201527f455243313135353a2063616c6c6572206973206e6f74206f776e6572206e6f7260448201526808185c1c1c9bdd995960ba1b6064820152608401610456565b3361147081878761146088612204565b61146988612204565b5050505050565b600084815261012f602090815260408083206001600160a01b038a16845290915290205461149f908490614d13565b600085815261012f602090815260408083206001600160a01b038b811685529252808320939093558716815220546114d8908490614ce7565b600085815261012f602090815260408083206001600160a01b038a811680865291845293829020949094558051888152918201879052898316928516917fc3d58168c5ae7397731d063d5bbf3d657854427343f4c083240f7aacaa2d0f62910160405180910390a4610a8881878787878761225d565b6033546001600160a01b031633146115a85760405162461bcd60e51b815260206004820181905260248201527f4f776e61626c653a2063616c6c6572206973206e6f7420746865206f776e65726044820152606401610456565b6001600160a01b0381166116245760405162461bcd60e51b815260206004820152602660248201527f4f776e61626c653a206e6577206f776e657220697320746865207a65726f206160448201527f64647265737300000000000000000000000000000000000000000000000000006064820152608401610456565b61162d8161205e565b50565b60008061163d8484611f66565b9092509050811561165357611653858584612368565b80156114695760408051858152602081018390526001600160a01b0387169133917f5110a21391aa55386de41fe7a3e3dffb40132d38d629a113a7f4afff251b1a019101610e31565b60006001600160e01b031982167f6db15a0f0000000000000000000000000000000000000000000000000000000014806116ff57506001600160e01b031982167f8bd1d7d000000000000000000000000000000000000000000000000000000000145b8061173357506001600160e01b031982167f01ffc9a700000000000000000000000000000000000000000000000000000000145b8061176757506001600160e01b031982167fd9b67a2600000000000000000000000000000000000000000000000000000000145b8061048557506001600160e01b031982167f0e89341c000000000000000000000000000000000000000000000000000000001492915050565b6117a86123ed565b6117b0612461565b6117b8612519565b6117c0612519565b6117c8612584565b6117e06040518060200160405280600081525061269c565b6117e98361275e565b6117f1612461565b6117fb868661282c565b61180484612910565b61180f826001611d50565b610a88816001611d50565b825160601c3380821480611833575061183382826112fb565b6118a55760405162461bcd60e51b815260206004820152602860248201527f455243313135353a207472616e736665722063616c6c6572206973206e6f742060448201527f617070726f7665640000000000000000000000000000000000000000000000006064820152608401610456565b600083116118f55760405162461bcd60e51b815260206004820152601060248201527f616d6f756e7420696e636f7272656374000000000000000000000000000000006044820152606401610456565b845160009081526101ff6020526040902054611b0457846060015160008151811061193057634e487b7160e01b600052603260045260246000fd5b6020026020010151600001516001600160a01b0316826001600160a01b03161461199c5760405162461bcd60e51b815260206004820152601160248201527f746f6b656e496420696e636f72726563740000000000000000000000000000006044820152606401610456565b60008560400151116119f05760405162461bcd60e51b815260206004820152601060248201527f737570706c7920696e636f7272656374000000000000000000000000000000006044820152606401610456565b8460a001515185606001515114611a0657600080fd5b6000611a1186612924565b905060005b866060015151811015611ab957600087606001518281518110611a4957634e487b7160e01b600052603260045260246000fd5b6020026020010151600001519050836001600160a01b0316816001600160a01b031614611aa657611aa681848a60a001518581518110611a9957634e487b7160e01b600052603260045260246000fd5b6020026020010151612ba0565b5080611ab181614e07565b915050611a16565b50611acc86600001518760400151612bab565b611ade86600001518760800151612c16565b611af086600001518760600151612e84565b611b0286600001518760200151613124565b505b611b23848660000151856040518060200160405280600081525061317d565b836001600160a01b0316826001600160a01b031614611bf357845160408051918252602082018590526001600160a01b0380851692600092918516917fc3d58168c5ae7397731d063d5bbf3d657854427343f4c083240f7aacaa2d0f62910160405180910390a4836001600160a01b0316826001600160a01b0316826001600160a01b03167fc3d58168c5ae7397731d063d5bbf3d657854427343f4c083240f7aacaa2d0f62886000015187604051611be6929190918252602082015260400190565b60405180910390a4611469565b845160408051918252602082018590526001600160a01b0380871692600092918516917fc3d58168c5ae7397731d063d5bbf3d657854427343f4c083240f7aacaa2d0f62910160405180910390a45050505050565b60008181526101c96020526040812080546060929190611c6790614d79565b80601f0160208091040260200160405190810160405280929190818152602001828054611c9390614d79565b8015611ce05780601f10611cb557610100808354040283529160200191611ce0565b820191906000526020600020905b815481529060010190602001808311611cc357829003601f168201915b505050505090506000611cf1610e40565b9050805160001415611d04575092915050565b815115611d1d57611d15818361318f565b949350505050565b80611d27856132b8565b604051602001611d38929190614b06565b60405160208183030381529060405292505050919050565b6001600160a01b03821660008181526101646020908152604091829020805460ff191685151590811790915591519182527f270dbb8ba4292910ae92862466486be25c355c837270a3d8824b36a8bc7c653b91015b60405180910390a25050565b6001600160a01b0384163b15610a885760405163bc197c8160e01b81526001600160a01b0385169063bc197c8190611df59089908990889088908890600401614b35565b602060405180830381600087803b158015611e0f57600080fd5b505af1925050508015611e3f575060408051601f3d908101601f19168201909252611e3c91810190614729565b60015b611ef557611e4b614e78565b806308c379a01415611e855750611e60614e90565b80611e6b5750611e87565b8060405162461bcd60e51b81526004016104569190614c6e565b505b60405162461bcd60e51b815260206004820152603460248201527f455243313135353a207472616e7366657220746f206e6f6e204552433131353560448201527f526563656976657220696d706c656d656e7465720000000000000000000000006064820152608401610456565b6001600160e01b0319811663bc197c8160e01b146112815760405162461bcd60e51b815260206004820152602860248201527f455243313135353a204552433131353552656365697665722072656a656374656044820152676420746f6b656e7360c01b6064820152608401610456565b806000606084901c33811415611fd15760008581526101ff60205260409020548492508015611fb95760008681526102006020526040812054611fa99083614d13565b905080861115611fb7578093505b505b611fc38684613406565b611fcd8386614d13565b9350505b509250929050565b6001600160a01b038316331480611ff55750611ff583336112fb565b6120535760405162461bcd60e51b815260206004820152602960248201527f455243313135353a2063616c6c6572206973206e6f74206f776e6572206e6f7260448201526808185c1c1c9bdd995960ba1b6064820152608401610456565b6106bd83838361342e565b603380546001600160a01b0383811673ffffffffffffffffffffffffffffffffffffffff19831681179093556040519116919082907f8be0079c531659141344cd1fd0a4f28419497f9722a3daafe3b4186f6b6457e090600090a35050565b60008381526101fd6020526040812054905b818110156114695760008581526101fd6020526040902080546001600160a01b03861691908390811061211257634e487b7160e01b600052603260045260246000fd5b60009182526020909120600290910201546001600160a01b031614156121a05760008581526101fd6020526040902080548491908390811061216457634e487b7160e01b600052603260045260246000fd5b60009182526020909120600290910201805473ffffffffffffffffffffffffffffffffffffffff19166001600160a01b03929092169190911790555b806121aa81614e07565b9150506120cf565b6001600160a01b0381166000908152610164602052604081205460ff168061130757506001600160a01b038084166000908152610130602090815260408083209386168352929052205460ff16611307565b6040805160018082528183019092526060916000919060208083019080368337019050509050828160008151811061224c57634e487b7160e01b600052603260045260246000fd5b602090810291909101015292915050565b6001600160a01b0384163b15610a885760405163f23a6e6160e01b81526001600160a01b0385169063f23a6e61906122a19089908990889088908890600401614b93565b602060405180830381600087803b1580156122bb57600080fd5b505af19250505080156122eb575060408051601f3d908101601f191682019092526122e891810190614729565b60015b6122f757611e4b614e78565b6001600160e01b0319811663f23a6e6160e01b146112815760405162461bcd60e51b815260206004820152602860248201527f455243313135353a204552433131353552656365697665722072656a656374656044820152676420746f6b656e7360c01b6064820152608401610456565b6001600160a01b038316331480612384575061238483336112fb565b6123e25760405162461bcd60e51b815260206004820152602960248201527f455243313135353a2063616c6c6572206973206e6f74206f776e6572206e6f7260448201526808185c1c1c9bdd995960ba1b6064820152608401610456565b6106bd838383613674565b600054610100900460ff166124585760405162461bcd60e51b815260206004820152602b60248201527f496e697469616c697a61626c653a20636f6e7472616374206973206e6f74206960448201526a6e697469616c697a696e6760a81b6064820152608401610456565b610f373361205e565b600054610100900460ff1661247c5760005460ff1615612480565b303b155b6124e35760405162461bcd60e51b815260206004820152602e60248201527f496e697469616c697a61626c653a20636f6e747261637420697320616c72656160448201526d191e481a5b9a5d1a585b1a5e995960921b6064820152608401610456565b600054610100900460ff16158015612505576000805461ffff19166101011790555b801561162d576000805461ff001916905550565b600054610100900460ff16610f375760405162461bcd60e51b815260206004820152602b60248201527f496e697469616c697a61626c653a20636f6e7472616374206973206e6f74206960448201526a6e697469616c697a696e6760a81b6064820152608401610456565b600054610100900460ff1661259f5760005460ff16156125a3565b303b155b6126065760405162461bcd60e51b815260206004820152602e60248201527f496e697469616c697a61626c653a20636f6e747261637420697320616c72656160448201526d191e481a5b9a5d1a585b1a5e995960921b6064820152608401610456565b600054610100900460ff16158015612628576000805461ffff19166101011790555b6125056040518060400160405280600881526020017f4d696e74313135350000000000000000000000000000000000000000000000008152506040518060400160405280600181526020017f3100000000000000000000000000000000000000000000000000000000000000815250613797565b600054610100900460ff166126b75760005460ff16156126bb565b303b155b61271e5760405162461bcd60e51b815260206004820152602e60248201527f496e697469616c697a61626c653a20636f6e747261637420697320616c72656160448201526d191e481a5b9a5d1a585b1a5e995960921b6064820152608401610456565b600054610100900460ff16158015612740576000805461ffff19166101011790555b6127498261381c565b80156107c0576000805461ff00191690555050565b600054610100900460ff166127795760005460ff161561277d565b303b155b6127e05760405162461bcd60e51b815260206004820152602e60248201527f496e697469616c697a61626c653a20636f6e747261637420697320616c72656160448201526d191e481a5b9a5d1a585b1a5e995960921b6064820152608401610456565b600054610100900460ff16158015612802576000805461ffff19166101011790555b815161281690610233906020850190614055565b5080156107c0576000805461ff00191690555050565b600054610100900460ff166128475760005460ff161561284b565b303b155b6128ae5760405162461bcd60e51b815260206004820152602e60248201527f496e697469616c697a61626c653a20636f6e747261637420697320616c72656160448201526d191e481a5b9a5d1a585b1a5e995960921b6064820152608401610456565b600054610100900460ff161580156128d0576000805461ffff19166101011790555b82516128e490610265906020860190614055565b5081516128f990610266906020850190614055565b5080156106bd576000805461ff0019169055505050565b80516107c0906101ca906020840190614055565b60008082608001515167ffffffffffffffff81111561295357634e487b7160e01b600052604160045260246000fd5b60405190808252806020026020018201604052801561297c578160200160208202803683370190505b50905060005b836080015151811015612a00576129c3846080015182815181106129b657634e487b7160e01b600052603260045260246000fd5b6020026020010151613830565b8282815181106129e357634e487b7160e01b600052603260045260246000fd5b6020908102919091010152806129f881614e07565b915050612982565b50600083606001515167ffffffffffffffff811115612a2f57634e487b7160e01b600052604160045260246000fd5b604051908082528060200260200182016040528015612a58578160200160208202803683370190505b50905060005b846060015151811015612acf57612a92856060015182815181106129b657634e487b7160e01b600052603260045260246000fd5b828281518110612ab257634e487b7160e01b600052603260045260246000fd5b602090810291909101015280612ac781614e07565b915050612a5e565b507f884e43eb0c3a89e0ebbfe87c1ab8a02045e5828aa1a06e2cca2dbf06249a60638460000151856040015186602001518051906020012084604051602001612b189190614ad0565b6040516020818303038152906040528051906020012086604051602001612b3f9190614ad0565b60408051601f198184030181528282528051602091820120908301979097528101949094526060840192909252608083015260a082015260c081019190915260e0016040516020818303038152906040528051906020012092505050919050565b6106bd8383836138a3565b60008281526101ff602052604090205415612bc557600080fd5b60008281526101ff602090815260409182902083905581518481529081018390527f5e2aa66efd74cce82b21852e317e5490d9ecc9e6bb953ae24d90851258cc2f5c91015b60405180910390a15050565b6000805b8251811015612e025760006001600160a01b0316838281518110612c4e57634e487b7160e01b600052603260045260246000fd5b6020026020010151600001516001600160a01b03161415612cb15760405162461bcd60e51b815260206004820152601b60248201527f526563697069656e742073686f756c642062652070726573656e7400000000006044820152606401610456565b828181518110612cd157634e487b7160e01b600052603260045260246000fd5b60200260200101516020015160001415612d2d5760405162461bcd60e51b815260206004820181905260248201527f526f79616c74792076616c75652073686f756c6420626520706f7369746976656044820152606401610456565b828181518110612d4d57634e487b7160e01b600052603260045260246000fd5b60200260200101516020015182612d649190614ce7565b91506101fd6000858152602001908152602001600020838281518110612d9a57634e487b7160e01b600052603260045260246000fd5b6020908102919091018101518254600180820185556000948552938390208251600290920201805473ffffffffffffffffffffffffffffffffffffffff19166001600160a01b0390921691909117815591015191015580612dfa81614e07565b915050612c1a565b506127108110612e7a5760405162461bcd60e51b815260206004820152602560248201527f526f79616c747920746f74616c2076616c75652073686f756c64206265203c2060448201527f31303030300000000000000000000000000000000000000000000000000000006064820152608401610456565b6106bd8383613a50565b60008281526101fe6020526040812090805b835181101561306d5760006001600160a01b0316848281518110612eca57634e487b7160e01b600052603260045260246000fd5b6020026020010151600001516001600160a01b03161415612f2d5760405162461bcd60e51b815260206004820152601960248201527f4163636f756e742073686f756c642062652070726573656e74000000000000006044820152606401610456565b838181518110612f4d57634e487b7160e01b600052603260045260246000fd5b60200260200101516020015160001415612fa95760405162461bcd60e51b815260206004820181905260248201527f43726561746f722073686172652073686f756c6420626520706f7369746976656044820152606401610456565b82848281518110612fca57634e487b7160e01b600052603260045260246000fd5b6020908102919091018101518254600180820185556000948552938390208251600290920201805473ffffffffffffffffffffffffffffffffffffffff19166001600160a01b03909216919091178155910151910155835184908290811061304257634e487b7160e01b600052603260045260246000fd5b602002602001015160200151826130599190614ce7565b91508061306581614e07565b915050612e96565b5080612710146130e55760405162461bcd60e51b815260206004820152602e60248201527f746f74616c20616d6f756e74206f662063726561746f7273207368617265207360448201527f686f756c642062652031303030300000000000000000000000000000000000006064820152608401610456565b7fdea22187a647971f18ffc8b95fa2ce2300fc9f6aa8c762e4872cb2da9bb979bc8484604051613116929190614c81565b60405180910390a150505050565b60008281526101c960209081526040909120825161314492840190614055565b50817f6bb7ff708619ba0610cba295a58592e0451dee2622938c8755667688daf3529b61317084611c48565b604051611da59190614c6e565b61318984848484613a81565b50505050565b805182516060918491849110156131cb5784846040516020016131b3929190614b06565b60405160208183030381529060405292505050610485565b60005b82518110156132ae578281815181106131f757634e487b7160e01b600052603260045260246000fd5b602001015160f81c60f81b7effffffffffffffffffffffffffffffffffffffffffffffffffffffffffffff191682828151811061324457634e487b7160e01b600052603260045260246000fd5b01602001517fff00000000000000000000000000000000000000000000000000000000000000161461329c578585604051602001613283929190614b06565b6040516020818303038152906040529350505050610485565b806132a681614e07565b9150506131ce565b5092949350505050565b6060816132f857505060408051808201909152600181527f3000000000000000000000000000000000000000000000000000000000000000602082015290565b8160005b8115613322578061330c81614e07565b915061331b9050600a83614cff565b91506132fc565b60008167ffffffffffffffff81111561334b57634e487b7160e01b600052604160045260246000fd5b6040519080825280601f01601f191660200182016040528015613375576020820181803683370190505b5090505b8415611d155761338a600183614d13565b9150613397600a86614e22565b6133a2906030614ce7565b60f81b8183815181106133c557634e487b7160e01b600052603260045260246000fd5b60200101907effffffffffffffffffffffffffffffffffffffffffffffffffffffffffffff1916908160001a9053506133ff600a86614cff565b9450613379565b6000828152610200602052604081208054839290613425908490614ce7565b90915550505050565b6001600160a01b0383166134905760405162461bcd60e51b815260206004820152602360248201527f455243313135353a206275726e2066726f6d20746865207a65726f206164647260448201526265737360e81b6064820152608401610456565b80518251146134f25760405162461bcd60e51b815260206004820152602860248201527f455243313135353a2069647320616e6420616d6f756e7473206c656e677468206044820152670dad2e6dac2e8c6d60c31b6064820152608401610456565b604080516020810190915260009081905233905b83518110156136155782818151811061352f57634e487b7160e01b600052603260045260246000fd5b602002602001015161012f600086848151811061355c57634e487b7160e01b600052603260045260246000fd5b602002602001015181526020019081526020016000206000876001600160a01b03166001600160a01b03168152602001908152602001600020546135a09190614d13565b61012f60008684815181106135c557634e487b7160e01b600052603260045260246000fd5b602002602001015181526020019081526020016000206000876001600160a01b03166001600160a01b0316815260200190815260200160002081905550808061360d90614e07565b915050613506565b5060006001600160a01b0316846001600160a01b0316826001600160a01b03167f4a39dc06d4c0dbc64b70af90fd698a233a518aa5d07e595d983b8c0526c8f7fb8686604051613666929190614c30565b60405180910390a450505050565b6001600160a01b0383166136d65760405162461bcd60e51b815260206004820152602360248201527f455243313135353a206275726e2066726f6d20746865207a65726f206164647260448201526265737360e81b6064820152608401610456565b33613706818560006136e787612204565b6136f087612204565b5050604080516020810190915260009052505050565b600083815261012f602090815260408083206001600160a01b0388168452909152902054613735908390614d13565b600084815261012f602090815260408083206001600160a01b0389811680865291845282852095909555815188815292830187905292938516917fc3d58168c5ae7397731d063d5bbf3d657854427343f4c083240f7aacaa2d0f629101613666565b600054610100900460ff166138025760405162461bcd60e51b815260206004820152602b60248201527f496e697469616c697a61626c653a20636f6e7472616374206973206e6f74206960448201526a6e697469616c697a696e6760a81b6064820152608401610456565b815160209283012081519190920120609791909155609855565b80516107c090610131906020840190614055565b8051602080830151604051600093613886937fb08bf1404f6dc18844aa16a600dd58b05f22c7c68d247543ea3eaf055d472a98939192019283526001600160a01b03919091166020830152604082015260600190565b604051602081830303815290604052805190602001209050919050565b60006138ae83613c0a565b905060008251604114156138c9576138c68284613c73565b90505b846001600160a01b0316816001600160a01b031614611469576001600160a01b0385163b15613a05576040517f1626ba7e00000000000000000000000000000000000000000000000000000000808252906001600160a01b03871690631626ba7e9061393b9086908890600401614c55565b60206040518083038186803b15801561395357600080fd5b505afa158015613967573d6000803e3d6000fd5b505050506040513d601f19601f8201168201806040525081019061398b9190614729565b7bffffffffffffffffffffffffffffffffffffffffffffffffffffffff1916146040518060400160405280601c81526020017f7369676e617475726520766572696669636174696f6e206572726f7200000000815250906139ff5760405162461bcd60e51b81526004016104569190614c6e565b50611469565b604080518082018252601c81527f7369676e617475726520766572696669636174696f6e206572726f72000000006020820152905162461bcd60e51b81526104569190600401614c6e565b7f11de1ed290ef7c79f0112213bdb47a9e423f83e4878a1d730a7a48c35065794d8282604051612c0a929190614c81565b60008381526102006020526040812054613a9b9084614ce7565b60008581526101ff6020526040902054909150811115613afd5760405162461bcd60e51b815260206004820152601060248201527f6d6f7265207468616e20737570706c79000000000000000000000000000000006044820152606401610456565b6000848152610200602052604090208190556001600160a01b038516613b8b5760405162461bcd60e51b815260206004820152602160248201527f455243313135353a206d696e7420746f20746865207a65726f2061646472657360448201527f73000000000000000000000000000000000000000000000000000000000000006064820152608401610456565b33613ba581600088613b9c89612204565b61146989612204565b600085815261012f602090815260408083206001600160a01b038a168452909152902054613bd4908590614ce7565b600086815261012f602090815260408083206001600160a01b038b168452909152812091909155610a889082908888888861225d565b6000610485613c17613cee565b836040517f19010000000000000000000000000000000000000000000000000000000000006020820152602281018390526042810182905260009060620160405160208183030381529060405280519060200120905092915050565b60008151604114613cc65760405162461bcd60e51b815260206004820152601f60248201527f45434453413a20696e76616c6964207369676e6174757265206c656e677468006044820152606401610456565b60208201516040830151606084015160001a613ce486828585613d6e565b9695505050505050565b6000613d697f8b73c3c69bb8fe3d512ecc4cf759cc79239f7b179b0ffacaa9a75d522b39400f613d1d60975490565b6098546040805160208101859052908101839052606081018290524660808201523060a082015260009060c0016040516020818303038152906040528051906020012090509392505050565b905090565b60007f7fffffffffffffffffffffffffffffff5d576e7357a4501ddfe92f46681b20a0821115613deb5760405162461bcd60e51b815260206004820152602260248201527f45434453413a20696e76616c6964207369676e6174757265202773272076616c604482015261756560f01b6064820152608401610456565b6000601e8560ff161115613eef57613e04600486614d2a565b60ff16601b1480613e225750613e1b600486614d2a565b60ff16601c145b613e795760405162461bcd60e51b815260206004820152602260248201527f45434453413a20696e76616c6964207369676e6174757265202776272076616c604482015261756560f01b6064820152608401610456565b6001613e848761401a565b613e8f600488614d2a565b6040805160008152602081018083529390935260ff90911690820152606081018690526080810185905260a0016020604051602081039080840390855afa158015613ede573d6000803e3d6000fd5b505050602060405103519050613fbb565b8460ff16601b1480613f0457508460ff16601c145b613f5b5760405162461bcd60e51b815260206004820152602260248201527f45434453413a20696e76616c6964207369676e6174757265202776272076616c604482015261756560f01b6064820152608401610456565b60408051600081526020810180835288905260ff871691810191909152606081018590526080810184905260019060a0016020604051602081039080840390855afa158015613fae573d6000803e3d6000fd5b5050506020604051035190505b6001600160a01b0381166140115760405162461bcd60e51b815260206004820152601860248201527f45434453413a20696e76616c6964207369676e617475726500000000000000006044820152606401610456565b95945050505050565b6040517f19457468657265756d205369676e6564204d6573736167653a0a3332000000006020820152603c8101829052600090605c01613886565b82805461406190614d79565b90600052602060002090601f01602090048101928261408357600085556140c9565b82601f1061409c57805160ff19168380011785556140c9565b828001600101855582156140c9579182015b828111156140c95782518255916020019190600101906140ae565b506140d59291506140d9565b5090565b5b808211156140d557600081556001016140da565b80356001600160a01b038116811461410557600080fd5b919050565b600082601f83011261411a578081fd5b8135602061412782614cc3565b6040516141348282614dda565b8381528281019150858301600585901b87018401881015614153578586fd5b855b8581101561417857614166826140ee565b84529284019290840190600101614155565b5090979650505050505050565b600082601f830112614195578081fd5b813560206141a282614cc3565b6040516141af8282614dda565b8381528281019150858301600585901b870184018810156141ce578586fd5b855b8581101561417857813567ffffffffffffffff8111156141ee578788fd5b6141fc8a87838c0101614316565b85525092840192908401906001016141d0565b600082601f83011261421f578081fd5b8135602061422c82614cc3565b6040805161423a8382614dda565b8481528381019250868401600686901b88018501891015614259578687fd5b865b868110156142a15783828b031215614271578788fd5b835161427c81614db4565b614285836140ee565b815282870135878201528552938501939083019060010161425b565b509098975050505050505050565b600082601f8301126142bf578081fd5b813560206142cc82614cc3565b6040516142d98282614dda565b8381528281019150858301600585901b870184018810156142f8578586fd5b855b85811015614178578135845292840192908401906001016142fa565b600082601f830112614326578081fd5b813567ffffffffffffffff81111561434057614340614e62565b604051614357601f8301601f191660200182614dda565b81815284602083860101111561436b578283fd5b816020850160208301379081016020019190915292915050565b600060c08284031215614396578081fd5b61439e614c9a565b905081358152602082013567ffffffffffffffff808211156143bf57600080fd5b6143cb85838601614316565b60208401526040840135604084015260608401359150808211156143ee57600080fd5b6143fa8583860161420f565b6060840152608084013591508082111561441357600080fd5b61441f8583860161420f565b608084015260a084013591508082111561443857600080fd5b5061444584828501614185565b60a08301525092915050565b600060208284031215614462578081fd5b611307826140ee565b6000806040838503121561447d578081fd5b614486836140ee565b9150614494602084016140ee565b90509250929050565b600080600080600060a086880312156144b4578081fd5b6144bd866140ee565b94506144cb602087016140ee565b9350604086013567ffffffffffffffff808211156144e7578283fd5b6144f389838a016142af565b94506060880135915080821115614508578283fd5b61451489838a016142af565b93506080880135915080821115614529578283fd5b5061453688828901614316565b9150509295509295909350565b600080600080600060a0868803121561455a578283fd5b614563866140ee565b9450614571602087016140ee565b93506040860135925060608601359150608086013567ffffffffffffffff81111561459a578182fd5b61453688828901614316565b6000806000606084860312156145ba578081fd5b6145c3846140ee565b9250602084013567ffffffffffffffff808211156145df578283fd5b6145eb878388016142af565b93506040860135915080821115614600578283fd5b5061460d868287016142af565b9150509250925092565b60008060408385031215614629578182fd5b614632836140ee565b915060208301358015158114614646578182fd5b809150509250929050565b60008060408385031215614663578182fd5b61466c836140ee565b946020939093013593505050565b60008060006060848603121561468e578081fd5b614697846140ee565b95602085013595506040909401359392505050565b600080604083850312156146be578182fd5b823567ffffffffffffffff808211156146d5578384fd5b6146e18683870161410a565b935060208501359150808211156146f6578283fd5b50614703858286016142af565b9150509250929050565b60006020828403121561471e578081fd5b813561130781614f1a565b60006020828403121561473a578081fd5b815161130781614f1a565b60008060008060008060c0878903121561475d578384fd5b863567ffffffffffffffff80821115614774578586fd5b6147808a838b01614316565b97506020890135915080821115614795578586fd5b6147a18a838b01614316565b965060408901359150808211156147b6578586fd5b6147c28a838b01614316565b955060608901359150808211156147d7578283fd5b506147e489828a01614316565b9350506147f3608088016140ee565b915061480160a088016140ee565b90509295509295509295565b600080600080600080600060e0888a031215614827578485fd5b873567ffffffffffffffff8082111561483e578687fd5b61484a8b838c01614316565b985060208a013591508082111561485f578687fd5b61486b8b838c01614316565b975060408a0135915080821115614880578687fd5b61488c8b838c01614316565b965060608a01359150808211156148a1578283fd5b6148ad8b838c01614316565b955060808a01359150808211156148c2578283fd5b506148cf8a828b0161410a565b9350506148de60a089016140ee565b91506148ec60c089016140ee565b905092959891949750929550565b6000806000806080858703121561490f578182fd5b843567ffffffffffffffff811115614925578283fd5b61493187828801614385565b945050614940602086016140ee565b925061494e604086016140ee565b9396929550929360600135925050565b600080600060608486031215614972578081fd5b833567ffffffffffffffff811115614988578182fd5b61499486828701614385565b9350506149a3602085016140ee565b9150604084013590509250925092565b6000602082840312156149c4578081fd5b5035919050565b6000806000606084860312156149df578081fd5b833592506149ef602085016140ee565b91506149fd604085016140ee565b90509250925092565b60008060408385031215614a18578182fd5b50508035926020909101359150565b6000815180845260208085019450808401835b83811015614a6a57815180516001600160a01b031688528301518388015260409096019590820190600101614a3a565b509495945050505050565b6000815180845260208085019450808401835b83811015614a6a57815187529582019590820190600101614a88565b60008151808452614abc816020860160208601614d4d565b601f01601f19169290920160200192915050565b815160009082906020808601845b83811015614afa57815185529382019390820190600101614ade565b50929695505050505050565b60008351614b18818460208801614d4d565b835190830190614b2c818360208801614d4d565b01949350505050565b60006001600160a01b03808816835280871660208401525060a06040830152614b6160a0830186614a75565b8281036060840152614b738186614a75565b90508281036080840152614b878185614aa4565b98975050505050505050565b60006001600160a01b03808816835280871660208401525084604083015283606083015260a06080830152614bcb60a0830184614aa4565b979650505050505050565b6001600160a01b0384168152606060208201526000614bf86060830185614aa4565b8281036040840152613ce48185614aa4565b6020815260006113076020830184614a27565b6020815260006113076020830184614a75565b604081526000614c436040830185614a75565b82810360208401526140118185614a75565b828152604060208201526000611d156040830184614aa4565b6020815260006113076020830184614aa4565b828152604060208201526000611d156040830184614a27565b60405160c0810167ffffffffffffffff81118282101715614cbd57614cbd614e62565b60405290565b600067ffffffffffffffff821115614cdd57614cdd614e62565b5060051b60200190565b60008219821115614cfa57614cfa614e36565b500190565b600082614d0e57614d0e614e4c565b500490565b600082821015614d2557614d25614e36565b500390565b600060ff821660ff841680821015614d4457614d44614e36565b90039392505050565b60005b83811015614d68578181015183820152602001614d50565b838111156131895750506000910152565b600181811c90821680614d8d57607f821691505b60208210811415614dae57634e487b7160e01b600052602260045260246000fd5b50919050565b6040810181811067ffffffffffffffff82111715614dd457614dd4614e62565b60405250565b601f8201601f1916810167ffffffffffffffff81118282101715614e0057614e00614e62565b6040525050565b6000600019821415614e1b57614e1b614e36565b5060010190565b600082614e3157614e31614e4c565b500690565b634e487b7160e01b600052601160045260246000fd5b634e487b7160e01b600052601260045260246000fd5b634e487b7160e01b600052604160045260246000fd5b600060033d1115614e8d57600481823e5160e01c5b90565b600060443d1015614e9e5790565b6040516003193d81016004833e81513d67ffffffffffffffff8160248401118184111715614ece57505050505090565b8285019150815181811115614ee65750505050505090565b843d8701016020828501011115614f005750505050505090565b614f0f60208286010187614dda565b509095945050505050565b6001600160e01b03198116811461162d57600080fdfea26469706673582212201587ff80dcbc2ef3299f585889b362f495c25923d001d3e880b016981e477eee64736f6c63430008040033",
  "linkReferences": {},
  "deployedLinkReferences": {}
}