{
  "_format": "hh-sol-artifact-1",
  "contractName": "ERC721BePayMinimal",
  "sourceName": "contracts/nfts/erc-721-minimal/ERC721BePayMinimal.sol",
  "abi": [
    {
      "inputs": [
        {
          "internalType": "uint256",
          "name": "id",
          "type": "uint256"
        }
      ],
      "name": "uri",
      "outputs": [
        {
          "internalType": "string",
          "name": "",
          "type": "string"
        }
      ],
      "stateMutability": "view",
      "type": "function"
    },
    {
      "anonymous": false,
      "inputs": [
        {
          "indexed": true,
          "internalType": "address",
          "name": "owner",
          "type": "address"
        },
        {
          "indexed": true,
          "internalType": "address",
          "name": "approved",
          "type": "address"
        },
        {
          "indexed": true,
          "internalType": "uint256",
          "name": "tokenId",
          "type": "uint256"
        }
      ],
      "name": "Approval",
      "type": "event"
    },
    {
      "anonymous": false,
      "inputs": [
        {
          "indexed": true,
          "internalType": "address",
          "name": "owner",
          "type": "address"
        },
        {
          "indexed": true,
          "internalType": "address",
          "name": "operator",
          "type": "address"
        },
        {
          "indexed": false,
          "internalType": "bool",
          "name": "approved",
          "type": "bool"
        }
      ],
      "name": "ApprovalForAll",
      "type": "event"
    },
    {
      "anonymous": false,
      "inputs": [
        {
          "indexed": false,
          "internalType": "address",
          "name": "owner",
          "type": "address"
        },
        {
          "indexed": false,
          "internalType": "string",
          "name": "name",
          "type": "string"
        },
        {
          "indexed": false,
          "internalType": "string",
          "name": "symbol",
          "type": "string"
        }
      ],
      "name": "CreateERC721BePay",
      "type": "event"
    },
    {
      "anonymous": false,
      "inputs": [
        {
          "indexed": false,
          "internalType": "address",
          "name": "owner",
          "type": "address"
        },
        {
          "indexed": false,
          "internalType": "string",
          "name": "name",
          "type": "string"
        },
        {
          "indexed": false,
          "internalType": "string",
          "name": "symbol",
          "type": "string"
        }
      ],
      "name": "CreateERC721BePayUser",
      "type": "event"
    },
    {
      "anonymous": false,
      "inputs": [
        {
          "indexed": false,
          "internalType": "uint256",
          "name": "tokenId",
          "type": "uint256"
        },
        {
          "components": [
            {
              "internalType": "address",
              "name": "account",
              "type": "address"
            },
            {
              "internalType": "uint256",
              "name": "value",
              "type": "uint256"
            }
          ],
          "indexed": false,
          "internalType": "struct LibPayout.Payout[]",
          "name": "creators",
          "type": "tuple[]"
        }
      ],
      "name": "Creators",
      "type": "event"
    },
    {
      "anonymous": false,
      "inputs": [
        {
          "indexed": true,
          "internalType": "address",
          "name": "operator",
          "type": "address"
        },
        {
          "indexed": false,
          "internalType": "bool",
          "name": "hasApproval",
          "type": "bool"
        }
      ],
      "name": "DefaultApproval",
      "type": "event"
    },
    {
      "anonymous": false,
      "inputs": [
        {
          "indexed": true,
          "internalType": "address",
          "name": "previousOwner",
          "type": "address"
        },
        {
          "indexed": true,
          "internalType": "address",
          "name": "newOwner",
          "type": "address"
        }
      ],
      "name": "OwnershipTransferred",
      "type": "event"
    },
    {
      "anonymous": false,
      "inputs": [
        {
          "indexed": false,
          "internalType": "uint256",
          "name": "tokenId",
          "type": "uint256"
        },
        {
          "components": [
            {
              "internalType": "address",
              "name": "account",
              "type": "address"
            },
            {
              "internalType": "uint256",
              "name": "value",
              "type": "uint256"
            }
          ],
          "indexed": false,
          "internalType": "struct LibPayout.Payout[]",
          "name": "royalties",
          "type": "tuple[]"
        }
      ],
      "name": "RoyaltiesSet",
      "type": "event"
    },
    {
      "anonymous": false,
      "inputs": [
        {
          "indexed": true,
          "internalType": "address",
          "name": "from",
          "type": "address"
        },
        {
          "indexed": true,
          "internalType": "address",
          "name": "to",
          "type": "address"
        },
        {
          "indexed": true,
          "internalType": "uint256",
          "name": "tokenId",
          "type": "uint256"
        }
      ],
      "name": "Transfer",
      "type": "event"
    },
    {
      "inputs": [
        {
          "internalType": "string",
          "name": "_name",
          "type": "string"
        },
        {
          "internalType": "string",
          "name": "_symbol",
          "type": "string"
        },
        {
          "internalType": "string",
          "name": "baseURI",
          "type": "string"
        },
        {
          "internalType": "string",
          "name": "contractURI",
          "type": "string"
        },
        {
          "internalType": "address[]",
          "name": "operators",
          "type": "address[]"
        },
        {
          "internalType": "address",
          "name": "transferProxy",
          "type": "address"
        },
        {
          "internalType": "address",
          "name": "lazyTransferProxy",
          "type": "address"
        }
      ],
      "name": "__ERC721BePayUser_init",
      "outputs": [],
      "stateMutability": "nonpayable",
      "type": "function"
    },
    {
      "inputs": [
        {
          "internalType": "string",
          "name": "_name",
          "type": "string"
        },
        {
          "internalType": "string",
          "name": "_symbol",
          "type": "string"
        },
        {
          "internalType": "string",
          "name": "baseURI",
          "type": "string"
        },
        {
          "internalType": "string",
          "name": "contractURI",
          "type": "string"
        },
        {
          "internalType": "address",
          "name": "transferProxy",
          "type": "address"
        },
        {
          "internalType": "address",
          "name": "lazyTransferProxy",
          "type": "address"
        }
      ],
      "name": "__ERC721BePay_init",
      "outputs": [],
      "stateMutability": "nonpayable",
      "type": "function"
    },
    {
      "inputs": [
        {
          "internalType": "address",
          "name": "to",
          "type": "address"
        },
        {
          "internalType": "uint256",
          "name": "tokenId",
          "type": "uint256"
        }
      ],
      "name": "approve",
      "outputs": [],
      "stateMutability": "nonpayable",
      "type": "function"
    },
    {
      "inputs": [
        {
          "internalType": "address",
          "name": "owner",
          "type": "address"
        }
      ],
      "name": "balanceOf",
      "outputs": [
        {
          "internalType": "uint256",
          "name": "",
          "type": "uint256"
        }
      ],
      "stateMutability": "view",
      "type": "function"
    },
    {
      "inputs": [],
      "name": "baseURI",
      "outputs": [
        {
          "internalType": "string",
          "name": "",
          "type": "string"
        }
      ],
      "stateMutability": "view",
      "type": "function"
    },
    {
      "inputs": [
        {
          "internalType": "uint256",
          "name": "tokenId",
          "type": "uint256"
        }
      ],
      "name": "burn",
      "outputs": [],
      "stateMutability": "nonpayable",
      "type": "function"
    },
    {
      "inputs": [],
      "name": "contractURI",
      "outputs": [
        {
          "internalType": "string",
          "name": "",
          "type": "string"
        }
      ],
      "stateMutability": "view",
      "type": "function"
    },
    {
      "inputs": [
        {
          "internalType": "uint256",
          "name": "tokenId",
          "type": "uint256"
        }
      ],
      "name": "getApproved",
      "outputs": [
        {
          "internalType": "address",
          "name": "",
          "type": "address"
        }
      ],
      "stateMutability": "view",
      "type": "function"
    },
    {
      "inputs": [
        {
          "internalType": "uint256",
          "name": "id",
          "type": "uint256"
        }
      ],
      "name": "getBePayRoyalties",
      "outputs": [
        {
          "components": [
            {
              "internalType": "address",
              "name": "account",
              "type": "address"
            },
            {
              "internalType": "uint256",
              "name": "value",
              "type": "uint256"
            }
          ],
          "internalType": "struct LibPayout.Payout[]",
          "name": "",
          "type": "tuple[]"
        }
      ],
      "stateMutability": "view",
      "type": "function"
    },
    {
      "inputs": [
        {
          "internalType": "uint256",
          "name": "_id",
          "type": "uint256"
        }
      ],
      "name": "getCreators",
      "outputs": [
        {
          "components": [
            {
              "internalType": "address",
              "name": "account",
              "type": "address"
            },
            {
              "internalType": "uint256",
              "name": "value",
              "type": "uint256"
            }
          ],
          "internalType": "struct LibPayout.Payout[]",
          "name": "",
          "type": "tuple[]"
        }
      ],
      "stateMutability": "view",
      "type": "function"
    },
    {
      "inputs": [
        {
          "internalType": "address",
          "name": "owner",
          "type": "address"
        },
        {
          "internalType": "address",
          "name": "operator",
          "type": "address"
        }
      ],
      "name": "isApprovedForAll",
      "outputs": [
        {
          "internalType": "bool",
          "name": "",
          "type": "bool"
        }
      ],
      "stateMutability": "view",
      "type": "function"
    },
    {
      "inputs": [
        {
          "components": [
            {
              "internalType": "uint256",
              "name": "tokenId",
              "type": "uint256"
            },
            {
              "internalType": "string",
              "name": "tokenURI",
              "type": "string"
            },
            {
              "components": [
                {
                  "internalType": "address",
                  "name": "account",
                  "type": "address"
                },
                {
                  "internalType": "uint256",
                  "name": "value",
                  "type": "uint256"
                }
              ],
              "internalType": "struct LibPayout.Payout[]",
              "name": "creators",
              "type": "tuple[]"
            },
            {
              "components": [
                {
                  "internalType": "address",
                  "name": "account",
                  "type": "address"
                },
                {
                  "internalType": "uint256",
                  "name": "value",
                  "type": "uint256"
                }
              ],
              "internalType": "struct LibPayout.Payout[]",
              "name": "royalties",
              "type": "tuple[]"
            },
            {
              "internalType": "bytes[]",
              "name": "signatures",
              "type": "bytes[]"
            }
          ],
          "internalType": "struct LibERC721LazyMint.Mint721Data",
          "name": "data",
          "type": "tuple"
        },
        {
          "internalType": "address",
          "name": "to",
          "type": "address"
        }
      ],
      "name": "mintAndTransfer",
      "outputs": [],
      "stateMutability": "nonpayable",
      "type": "function"
    },
    {
      "inputs": [],
      "name": "name",
      "outputs": [
        {
          "internalType": "string",
          "name": "",
          "type": "string"
        }
      ],
      "stateMutability": "view",
      "type": "function"
    },
    {
      "inputs": [],
      "name": "owner",
      "outputs": [
        {
          "internalType": "address",
          "name": "",
          "type": "address"
        }
      ],
      "stateMutability": "view",
      "type": "function"
    },
    {
      "inputs": [
        {
          "internalType": "uint256",
          "name": "tokenId",
          "type": "uint256"
        }
      ],
      "name": "ownerOf",
      "outputs": [
        {
          "internalType": "address",
          "name": "",
          "type": "address"
        }
      ],
      "stateMutability": "view",
      "type": "function"
    },
    {
      "inputs": [],
      "name": "renounceOwnership",
      "outputs": [],
      "stateMutability": "nonpayable",
      "type": "function"
    },
    {
      "inputs": [
        {
          "internalType": "address",
          "name": "from",
          "type": "address"
        },
        {
          "internalType": "address",
          "name": "to",
          "type": "address"
        },
        {
          "internalType": "uint256",
          "name": "tokenId",
          "type": "uint256"
        }
      ],
      "name": "safeTransferFrom",
      "outputs": [],
      "stateMutability": "nonpayable",
      "type": "function"
    },
    {
      "inputs": [
        {
          "internalType": "address",
          "name": "from",
          "type": "address"
        },
        {
          "internalType": "address",
          "name": "to",
          "type": "address"
        },
        {
          "internalType": "uint256",
          "name": "tokenId",
          "type": "uint256"
        },
        {
          "internalType": "bytes",
          "name": "_data",
          "type": "bytes"
        }
      ],
      "name": "safeTransferFrom",
      "outputs": [],
      "stateMutability": "nonpayable",
      "type": "function"
    },
    {
      "inputs": [
        {
          "internalType": "address",
          "name": "operator",
          "type": "address"
        },
        {
          "internalType": "bool",
          "name": "approved",
          "type": "bool"
        }
      ],
      "name": "setApprovalForAll",
      "outputs": [],
      "stateMutability": "nonpayable",
      "type": "function"
    },
    {
      "inputs": [
        {
          "internalType": "address",
          "name": "operator",
          "type": "address"
        },
        {
          "internalType": "bool",
          "name": "hasApproval",
          "type": "bool"
        }
      ],
      "name": "setDefaultApproval",
      "outputs": [],
      "stateMutability": "nonpayable",
      "type": "function"
    },
    {
      "inputs": [
        {
          "internalType": "bytes4",
          "name": "interfaceId",
          "type": "bytes4"
        }
      ],
      "name": "supportsInterface",
      "outputs": [
        {
          "internalType": "bool",
          "name": "",
          "type": "bool"
        }
      ],
      "stateMutability": "view",
      "type": "function"
    },
    {
      "inputs": [],
      "name": "symbol",
      "outputs": [
        {
          "internalType": "string",
          "name": "",
          "type": "string"
        }
      ],
      "stateMutability": "view",
      "type": "function"
    },
    {
      "inputs": [
        {
          "internalType": "uint256",
          "name": "tokenId",
          "type": "uint256"
        }
      ],
      "name": "tokenURI",
      "outputs": [
        {
          "internalType": "string",
          "name": "",
          "type": "string"
        }
      ],
      "stateMutability": "view",
      "type": "function"
    },
    {
      "inputs": [
        {
          "internalType": "address",
          "name": "from",
          "type": "address"
        },
        {
          "internalType": "address",
          "name": "to",
          "type": "address"
        },
        {
          "internalType": "uint256",
          "name": "tokenId",
          "type": "uint256"
        }
      ],
      "name": "transferFrom",
      "outputs": [],
      "stateMutability": "nonpayable",
      "type": "function"
    },
    {
      "inputs": [
        {
          "components": [
            {
              "internalType": "uint256",
              "name": "tokenId",
              "type": "uint256"
            },
            {
              "internalType": "string",
              "name": "tokenURI",
              "type": "string"
            },
            {
              "components": [
                {
                  "internalType": "address",
                  "name": "account",
                  "type": "address"
                },
                {
                  "internalType": "uint256",
                  "name": "value",
                  "type": "uint256"
                }
              ],
              "internalType": "struct LibPayout.Payout[]",
              "name": "creators",
              "type": "tuple[]"
            },
            {
              "components": [
                {
                  "internalType": "address",
                  "name": "account",
                  "type": "address"
                },
                {
                  "internalType": "uint256",
                  "name": "value",
                  "type": "uint256"
                }
              ],
              "internalType": "struct LibPayout.Payout[]",
              "name": "royalties",
              "type": "tuple[]"
            },
            {
              "internalType": "bytes[]",
              "name": "signatures",
              "type": "bytes[]"
            }
          ],
          "internalType": "struct LibERC721LazyMint.Mint721Data",
          "name": "data",
          "type": "tuple"
        },
        {
          "internalType": "address",
          "name": "from",
          "type": "address"
        },
        {
          "internalType": "address",
          "name": "to",
          "type": "address"
        }
      ],
      "name": "transferFromOrMint",
      "outputs": [],
      "stateMutability": "nonpayable",
      "type": "function"
    },
    {
      "inputs": [
        {
          "internalType": "address",
          "name": "newOwner",
          "type": "address"
        }
      ],
      "name": "transferOwnership",
      "outputs": [],
      "stateMutability": "nonpayable",
      "type": "function"
    },
    {
      "inputs": [
        {
          "internalType": "uint256",
          "name": "_id",
          "type": "uint256"
        },
        {
          "internalType": "address",
          "name": "_from",
          "type": "address"
        },
        {
          "internalType": "address",
          "name": "_to",
          "type": "address"
        }
      ],
      "name": "updateAccount",
      "outputs": [],
      "stateMutability": "nonpayable",
      "type": "function"
    }
  ],
  "bytecode": "0x608060405234801561001057600080fd5b50613ed4806100206000396000f3fe608060405234801561001057600080fd5b50600436106101b95760003560e01c8063715018a6116100f9578063b88d4fde11610097578063e8a3d48511610071578063e8a3d4851461039c578063e985e9c5146103a4578063ebae3975146103b7578063f2fde38b146103ca57600080fd5b8063b88d4fde14610363578063c87b56dd14610376578063e07f23191461038957600080fd5b80638bd1d7d0116100d35780638bd1d7d0146103245780638da5cb5b1461033757806395d89b4114610348578063a22cb4651461035057600080fd5b8063715018a6146102e95780638080d227146102f1578063891be9741461030457600080fd5b806323b872dd11610166578063450346e011610140578063450346e01461029a5780636352211e146102ad5780636c0360eb146102c057806370a08231146102c857600080fd5b806323b872dd1461026157806342842e0e1461027457806342966c681461028757600080fd5b8063095ea7b311610197578063095ea7b31461022657806318054c371461023b5780631e81c2bf1461024e57600080fd5b806301ffc9a7146101be57806306fdde03146101e6578063081812fc146101fb575b600080fd5b6101d16101cc3660046138be565b6103dd565b60405190151581526020015b60405180910390f35b6101ee6103ee565b6040516101dd9190613ce7565b61020e610209366004613b4a565b610480565b6040516001600160a01b0390911681526020016101dd565b610239610234366004613895565b61051b565b005b61023961024936600461385b565b61064d565b61023961025c366004613aee565b6106b5565b61023961026f3660046137ba565b6106ed565b6102396102823660046137ba565b610769565b610239610295366004613b4a565b610784565b6102396102a8366004613aab565b6108c1565b61020e6102bb366004613b4a565b610979565b6101ee610a04565b6102db6102d636600461376e565b610a14565b6040519081526020016101dd565b610239610aaf565b6102396102ff3660046139be565b610b15565b610317610312366004613b4a565b610c83565b6040516101dd9190613cbb565b610317610332366004613b4a565b610d0c565b6033546001600160a01b031661020e565b6101ee610d80565b61023961035e36600461385b565b610d8f565b6102396103713660046137f5565b610e55565b6101ee610384366004613b4a565b610ed7565b610239610397366004613b62565b610ee2565b6101ee610f45565b6101d16103b2366004613788565b610fd4565b6102396103c53660046138f6565b610fe7565b6102396103d836600461376e565b6110fa565b60006103e8826111d9565b92915050565b606060fd80546103fd90613e06565b80601f016020809104026020016040519081016040528092919081815260200182805461042990613e06565b80156104765780601f1061044b57610100808354040283529160200191610476565b820191906000526020600020905b81548152906001019060200180831161045957829003601f168201915b5050505050905090565b600081815260ff60205260408120546001600160a01b03166104fe5760405162461bcd60e51b815260206004820152602c60248201527f4552433732313a20617070726f76656420717565727920666f72206e6f6e657860448201526b34b9ba32b73a103a37b5b2b760a11b60648201526084015b60405180910390fd5b50600090815261010160205260409020546001600160a01b031690565b600061052682610979565b9050806001600160a01b0316836001600160a01b031614156105b05760405162461bcd60e51b815260206004820152602160248201527f4552433732313a20617070726f76616c20746f2063757272656e74206f776e6560448201527f720000000000000000000000000000000000000000000000000000000000000060648201526084016104f5565b336001600160a01b03821614806105cc57506105cc8133610fd4565b61063e5760405162461bcd60e51b815260206004820152603860248201527f4552433732313a20617070726f76652063616c6c6572206973206e6f74206f7760448201527f6e6572206e6f7220617070726f76656420666f7220616c6c000000000000000060648201526084016104f5565b6106488383611311565b505050565b6033546001600160a01b031633146106a75760405162461bcd60e51b815260206004820181905260248201527f4f776e61626c653a2063616c6c6572206973206e6f7420746865206f776e657260448201526064016104f5565b6106b18282611380565b5050565b8251600090815260ff60205260409020546001600160a01b0316156106e35761064882828560000151610769565b61064883826108c1565b6106f8335b826113e0565b61075e5760405162461bcd60e51b815260206004820152603160248201527f4552433732313a207472616e736665722063616c6c6572206973206e6f74206f6044820152701ddb995c881b9bdc88185c1c1c9bdd9959607a1b60648201526084016104f5565b6106488383836113ec565b61064883838360405180602001604052806000815250610e55565b600081815260ff60205260409020546001600160a01b031661083a57606081901c33811461081a5760405162461bcd60e51b815260206004820152602d60248201527f4552433732314275726e61626c653a2063616c6c6572206973206e6f74206f7760448201527f6e65722c206e6f74206275726e0000000000000000000000000000000000000060648201526084016104f5565b6106b182600090815261010360205260409020805460ff19166001179055565b610843336106f2565b6108b55760405162461bcd60e51b815260206004820152603060248201527f4552433732314275726e61626c653a2063616c6c6572206973206e6f74206f7760448201527f6e6572206e6f7220617070726f7665640000000000000000000000000000000060648201526084016104f5565b6108be816115bb565b50565b6102995460ff161561096f5781604001516000815181106108f257634e487b7160e01b600052603260045260246000fd5b6020026020010151600001516001600160a01b03166109196033546001600160a01b031690565b6001600160a01b03161461096f5760405162461bcd60e51b815260206004820152601760248201527f6d696e746572206973206e6f7420746865206f776e657200000000000000000060448201526064016104f5565b6106b1828261166d565b600081815260ff60205260408120546001600160a01b0316806103e85760405162461bcd60e51b815260206004820152602960248201527f4552433732313a206f776e657220717565727920666f72206e6f6e657869737460448201527f656e7420746f6b656e000000000000000000000000000000000000000000000060648201526084016104f5565b60606101cf80546103fd90613e06565b60006001600160a01b038216610a925760405162461bcd60e51b815260206004820152602a60248201527f4552433732313a2062616c616e636520717565727920666f7220746865207a6560448201527f726f20616464726573730000000000000000000000000000000000000000000060648201526084016104f5565b506001600160a01b03166000908152610100602052604090205490565b6033546001600160a01b03163314610b095760405162461bcd60e51b815260206004820181905260248201527f4f776e61626c653a2063616c6c6572206973206e6f7420746865206f776e657260448201526064016104f5565b610b1360006118a8565b565b600054610100900460ff16610b305760005460ff1615610b34565b303b155b610b975760405162461bcd60e51b815260206004820152602e60248201527f496e697469616c697a61626c653a20636f6e747261637420697320616c72656160448201526d191e481a5b9a5d1a585b1a5e995960921b60648201526084016104f5565b600054610100900460ff16158015610bb9576000805461ffff19166101011790555b610bc78888888887876118fa565b60005b8451811015610c1757610c05858281518110610bf657634e487b7160e01b600052603260045260246000fd5b60200260200101516001610d8f565b80610c0f81613e41565b915050610bca565b50610299805460ff191660011790557fc1a2a266984ea8f93aaf2154a4be22458b9fa44bd7c0c962e6a71ceb7dd03fc5610c4e3390565b8989604051610c5f93929190613c87565b60405180910390a18015610c79576000805461ff00191690555b5050505050505050565b60606102026000838152602001908152602001600020805480602002602001604051908101604052809291908181526020016000905b82821015610d01576000848152602090819020604080518082019091526002850290910180546001600160a01b03168252600190810154828401529083529092019101610cb9565b505050509050919050565b60008181526101cd60209081526040808320805482518185028101850190935280835260609492939192909184018215610d01576000848152602090819020604080518082019091526002850290910180546001600160a01b03168252600190810154828401529083529092019101610cb9565b606060fe80546103fd90613e06565b6001600160a01b038216331415610de85760405162461bcd60e51b815260206004820152601960248201527f4552433732313a20617070726f766520746f2063616c6c65720000000000000060448201526064016104f5565b336000818152610102602090815260408083206001600160a01b03871680855290835292819020805460ff191686151590811790915590519081529192917f17307eab39ab6107e8899845ad3d59bd9653f200f220920489ca2b5937696c31910160405180910390a35050565b610e5f33836113e0565b610ec55760405162461bcd60e51b815260206004820152603160248201527f4552433732313a207472616e736665722063616c6c6572206973206e6f74206f6044820152701ddb995c881b9bdc88185c1c1c9bdd9959607a1b60648201526084016104f5565b610ed184848484611964565b50505050565b60606103e8826119e2565b336001600160a01b03831614610f3a5760405162461bcd60e51b815260206004820152600b60248201527f6e6f7420616c6c6f77656400000000000000000000000000000000000000000060448201526064016104f5565b6106488383836119ea565b6102358054610f5390613e06565b80601f0160208091040260200160405190810160405280929190818152602001828054610f7f90613e06565b8015610fcc5780601f10610fa157610100808354040283529160200191610fcc565b820191906000526020600020905b815481529060010190602001808311610faf57829003601f168201915b505050505081565b6000610fe08383611ad2565b9392505050565b600054610100900460ff166110025760005460ff1615611006565b303b155b6110695760405162461bcd60e51b815260206004820152602e60248201527f496e697469616c697a61626c653a20636f6e747261637420697320616c72656160448201526d191e481a5b9a5d1a585b1a5e995960921b60648201526084016104f5565b600054610100900460ff1615801561108b576000805461ffff19166101011790555b6110998787878787876118fa565b610299805460ff191690557f5311d619824a9c65dd71a5e2880ab6d09a8fb992cedf4bf37ea4526333db18763388886040516110d793929190613c87565b60405180910390a180156110f1576000805461ff00191690555b50505050505050565b6033546001600160a01b031633146111545760405162461bcd60e51b815260206004820181905260248201527f4f776e61626c653a2063616c6c6572206973206e6f7420746865206f776e657260448201526064016104f5565b6001600160a01b0381166111d05760405162461bcd60e51b815260206004820152602660248201527f4f776e61626c653a206e6577206f776e657220697320746865207a65726f206160448201527f646472657373000000000000000000000000000000000000000000000000000060648201526084016104f5565b6108be816118a8565b60006001600160e01b031982167f8486f69f00000000000000000000000000000000000000000000000000000000148061123c57506001600160e01b031982167f8bd1d7d000000000000000000000000000000000000000000000000000000000145b8061127057506001600160e01b031982167f01ffc9a700000000000000000000000000000000000000000000000000000000145b806112a457506001600160e01b031982167f80ac58cd00000000000000000000000000000000000000000000000000000000145b806112d857506001600160e01b031982167f5b5e139f00000000000000000000000000000000000000000000000000000000145b806103e857506001600160e01b031982167f780e9d63000000000000000000000000000000000000000000000000000000001492915050565b60008181526101016020526040902080546001600160a01b0319166001600160a01b038416908117909155819061134782610979565b6001600160a01b03167f8c5be1e5ebec7d5bd14f71427d1e84f3dd0314c0f7b2291e5b200ac8c7c3b92560405160405180910390a45050565b6001600160a01b03821660008181526101366020908152604091829020805460ff191685151590811790915591519182527f270dbb8ba4292910ae92862466486be25c355c837270a3d8824b36a8bc7c653b910160405180910390a25050565b6000610fe08383611b24565b826001600160a01b03166113ff82610979565b6001600160a01b03161461147b5760405162461bcd60e51b815260206004820152602960248201527f4552433732313a207472616e73666572206f6620746f6b656e2074686174206960448201527f73206e6f74206f776e000000000000000000000000000000000000000000000060648201526084016104f5565b6001600160a01b0382166114f65760405162461bcd60e51b8152602060048201526024808201527f4552433732313a207472616e7366657220746f20746865207a65726f2061646460448201527f726573730000000000000000000000000000000000000000000000000000000060648201526084016104f5565b611501600082611311565b6001600160a01b03831660009081526101006020526040812080546001929061152b908490613dcc565b90915550506001600160a01b03821660009081526101006020526040812080546001929061155a908490613db4565b9091555050600081815260ff602052604080822080546001600160a01b0319166001600160a01b0386811691821790925591518493918716917fddf252ad1be2c89b69c2b068fc378daa952ba7f163c4a11628f55a4df523b3ef91a4505050565b60006115c682610979565b90506115d3600083611311565b6001600160a01b0381166000908152610100602052604081208054600192906115fd908490613dcc565b9091555050600082815260ff6020908152604080832080546001600160a01b0319169055610103909152808220805460ff19166001179055518391906001600160a01b038416907fddf252ad1be2c89b69c2b068fc378daa952ba7f163c4a11628f55a4df523b3ef908390a45050565b815160601c6000339050836040015160008151811061169c57634e487b7160e01b600052603260045260246000fd5b6020026020010151600001516001600160a01b0316826001600160a01b0316146117085760405162461bcd60e51b815260206004820152601160248201527f746f6b656e496420696e636f727265637400000000000000000000000000000060448201526064016104f5565b8360800151518460400151511461171e57600080fd5b806001600160a01b0316826001600160a01b0316148061174357506117438282610fd4565b6117a95760405162461bcd60e51b815260206004820152603160248201527f4552433732313a207472616e736665722063616c6c6572206973206e6f74206f6044820152701ddb995c881b9bdc88185c1c1c9bdd9959607a1b60648201526084016104f5565b60006117b485611b51565b905060005b85604001515181101561185c576000866040015182815181106117ec57634e487b7160e01b600052603260045260246000fd5b6020026020010151600001519050836001600160a01b0316816001600160a01b0316146118495761184981848960800151858151811061183c57634e487b7160e01b600052603260045260246000fd5b6020026020010151611dc3565b508061185481613e41565b9150506117b9565b5061186b848660000151611dce565b61187d85600001518660600151611de8565b61188f85600001518660400151612049565b6118a1856000015186602001516122dc565b5050505050565b603380546001600160a01b038381166001600160a01b0319831681179093556040519116919082907f8be0079c531659141344cd1fd0a4f28419497f9722a3daafe3b4186f6b6457e090600090a35050565b61190384612375565b61190b612389565b611913612441565b61191b612441565b6119236124ac565b61192b612389565b611933612520565b61193c83612638565b6119468686612706565b611951826001611380565b61195c816001611380565b505050505050565b61196f8484846113ec565b61197b848484846127e8565b610ed15760405162461bcd60e51b815260206004820152603260248201527f4552433732313a207472616e7366657220746f206e6f6e20455243373231526560448201527131b2b4bb32b91034b6b83632b6b2b73a32b960711b60648201526084016104f5565b6060806103e8565b60008381526101cd6020526040812054905b818110156118a15760008581526101cd6020526040902080546001600160a01b038616919083908110611a3f57634e487b7160e01b600052603260045260246000fd5b60009182526020909120600290910201546001600160a01b03161415611ac05760008581526101cd60205260409020805484919083908110611a9157634e487b7160e01b600052603260045260246000fd5b6000918252602090912060029091020180546001600160a01b0319166001600160a01b03929092169190911790555b80611aca81613e41565b9150506119fc565b6001600160a01b0381166000908152610136602052604081205460ff1680610fe057506001600160a01b038084166000908152610102602090815260408083209386168352929052205460ff16610fe0565b6001600160a01b0382166000908152610136602052604081205460ff1680610fe05750610fe08383612941565b60008082606001515167ffffffffffffffff811115611b8057634e487b7160e01b600052604160045260246000fd5b604051908082528060200260200182016040528015611ba9578160200160208202803683370190505b50905060005b836060015151811015611c2d57611bf084606001518281518110611be357634e487b7160e01b600052603260045260246000fd5b6020026020010151612a10565b828281518110611c1057634e487b7160e01b600052603260045260246000fd5b602090810291909101015280611c2581613e41565b915050611baf565b50600083604001515167ffffffffffffffff811115611c5c57634e487b7160e01b600052604160045260246000fd5b604051908082528060200260200182016040528015611c85578160200160208202803683370190505b50905060005b846040015151811015611cfc57611cbf85604001518281518110611be357634e487b7160e01b600052603260045260246000fd5b828281518110611cdf57634e487b7160e01b600052603260045260246000fd5b602090810291909101015280611cf481613e41565b915050611c8b565b507f663061f1bf63e995da4e2c21a60f6e1c2f4b06994258aff716490e88a7409743846000015185602001518051906020012083604051602001611d409190613c1f565b6040516020818303038152906040528051906020012085604051602001611d679190613c1f565b60408051601f198184030181528282528051602091820120908301969096528101939093526060830191909152608082015260a081019190915260c0016040516020818303038152906040528051906020012092505050919050565b610648838383612a83565b6106b1828260405180602001604052806000815250612c30565b6000805b8251811015611fc75760006001600160a01b0316838281518110611e2057634e487b7160e01b600052603260045260246000fd5b6020026020010151600001516001600160a01b03161415611e835760405162461bcd60e51b815260206004820152601b60248201527f526563697069656e742073686f756c642062652070726573656e74000000000060448201526064016104f5565b828181518110611ea357634e487b7160e01b600052603260045260246000fd5b60200260200101516020015160001415611eff5760405162461bcd60e51b815260206004820181905260248201527f526f79616c74792076616c75652073686f756c6420626520706f73697469766560448201526064016104f5565b828181518110611f1f57634e487b7160e01b600052603260045260246000fd5b60200260200101516020015182611f369190613db4565b91506101cd6000858152602001908152602001600020838281518110611f6c57634e487b7160e01b600052603260045260246000fd5b602090810291909101810151825460018082018555600094855293839020825160029092020180546001600160a01b0319166001600160a01b0390921691909117815591015191015580611fbf81613e41565b915050611dec565b50612710811061203f5760405162461bcd60e51b815260206004820152602560248201527f526f79616c747920746f74616c2076616c75652073686f756c64206265203c2060448201527f313030303000000000000000000000000000000000000000000000000000000060648201526084016104f5565b6106488383612cae565b60008281526102026020526040812090805b83518110156122255760006001600160a01b031684828151811061208f57634e487b7160e01b600052603260045260246000fd5b6020026020010151600001516001600160a01b031614156120f25760405162461bcd60e51b815260206004820152601960248201527f4163636f756e742073686f756c642062652070726573656e740000000000000060448201526064016104f5565b83818151811061211257634e487b7160e01b600052603260045260246000fd5b6020026020010151602001516000141561216e5760405162461bcd60e51b815260206004820181905260248201527f43726561746f722073686172652073686f756c6420626520706f73697469766560448201526064016104f5565b8284828151811061218f57634e487b7160e01b600052603260045260246000fd5b602090810291909101810151825460018082018555600094855293839020825160029092020180546001600160a01b0319166001600160a01b0390921691909117815591015191015583518490829081106121fa57634e487b7160e01b600052603260045260246000fd5b602002602001015160200151826122119190613db4565b91508061221d81613e41565b91505061205b565b50806127101461229d5760405162461bcd60e51b815260206004820152602e60248201527f746f74616c20616d6f756e74206f662063726561746f7273207368617265207360448201527f686f756c6420626520313030303000000000000000000000000000000000000060648201526084016104f5565b7fdea22187a647971f18ffc8b95fa2ce2300fc9f6aa8c762e4872cb2da9bb979bc84846040516122ce929190613cfa565b60405180910390a150505050565b600082815260ff60205260409020546001600160a01b03166123555760405162461bcd60e51b815260206004820152602c60248201527f4552433732314d657461646174613a2055524920736574206f66206e6f6e657860448201526b34b9ba32b73a103a37b5b2b760a11b60648201526084016104f5565b60008281526101ce60209081526040909120825161064892840190613410565b80516106b1906101cf906020840190613410565b600054610100900460ff166123a45760005460ff16156123a8565b303b155b61240b5760405162461bcd60e51b815260206004820152602e60248201527f496e697469616c697a61626c653a20636f6e747261637420697320616c72656160448201526d191e481a5b9a5d1a585b1a5e995960921b60648201526084016104f5565b600054610100900460ff1615801561242d576000805461ffff19166101011790555b80156108be576000805461ff001916905550565b600054610100900460ff16610b135760405162461bcd60e51b815260206004820152602b60248201527f496e697469616c697a61626c653a20636f6e7472616374206973206e6f74206960448201526a6e697469616c697a696e6760a81b60648201526084016104f5565b600054610100900460ff166125175760405162461bcd60e51b815260206004820152602b60248201527f496e697469616c697a61626c653a20636f6e7472616374206973206e6f74206960448201526a6e697469616c697a696e6760a81b60648201526084016104f5565b610b13336118a8565b600054610100900460ff1661253b5760005460ff161561253f565b303b155b6125a25760405162461bcd60e51b815260206004820152602e60248201527f496e697469616c697a61626c653a20636f6e747261637420697320616c72656160448201526d191e481a5b9a5d1a585b1a5e995960921b60648201526084016104f5565b600054610100900460ff161580156125c4576000805461ffff19166101011790555b61242d6040518060400160405280600781526020017f4d696e74373231000000000000000000000000000000000000000000000000008152506040518060400160405280600181526020017f3100000000000000000000000000000000000000000000000000000000000000815250612ceb565b600054610100900460ff166126535760005460ff1615612657565b303b155b6126ba5760405162461bcd60e51b815260206004820152602e60248201527f496e697469616c697a61626c653a20636f6e747261637420697320616c72656160448201526d191e481a5b9a5d1a585b1a5e995960921b60648201526084016104f5565b600054610100900460ff161580156126dc576000805461ffff19166101011790555b81516126f090610235906020850190613410565b5080156106b1576000805461ff00191690555050565b600054610100900460ff166127215760005460ff1615612725565b303b155b6127885760405162461bcd60e51b815260206004820152602e60248201527f496e697469616c697a61626c653a20636f6e747261637420697320616c72656160448201526d191e481a5b9a5d1a585b1a5e995960921b60648201526084016104f5565b600054610100900460ff161580156127aa576000805461ffff19166101011790555b82516127bd9060fd906020860190613410565b5081516127d19060fe906020850190613410565b508015610648576000805461ff0019169055505050565b60006001600160a01b0384163b1561293557604051630a85bd0160e11b81526001600160a01b0385169063150b7a029061282c903390899088908890600401613c55565b602060405180830381600087803b15801561284657600080fd5b505af1925050508015612876575060408051601f3d908101601f19168201909252612873918101906138da565b60015b61291b573d8080156128a4576040519150601f19603f3d011682016040523d82523d6000602084013e6128a9565b606091505b5080516129135760405162461bcd60e51b815260206004820152603260248201527f4552433732313a207472616e7366657220746f206e6f6e20455243373231526560448201527131b2b4bb32b91034b6b83632b6b2b73a32b960711b60648201526084016104f5565b805181602001fd5b6001600160e01b031916630a85bd0160e11b149050612939565b5060015b949350505050565b600081815260ff60205260408120546001600160a01b03166129ba5760405162461bcd60e51b815260206004820152602c60248201527f4552433732313a206f70657261746f7220717565727920666f72206e6f6e657860448201526b34b9ba32b73a103a37b5b2b760a11b60648201526084016104f5565b60006129c583610979565b9050806001600160a01b0316846001600160a01b03161480612a005750836001600160a01b03166129f584610480565b6001600160a01b0316145b8061293957506129398185610fd4565b8051602080830151604051600093612a66937fb08bf1404f6dc18844aa16a600dd58b05f22c7c68d247543ea3eaf055d472a98939192019283526001600160a01b03919091166020830152604082015260600190565b604051602081830303815290604052805190602001209050919050565b6000612a8e83612d70565b90506000825160411415612aa957612aa68284612dd9565b90505b846001600160a01b0316816001600160a01b0316146118a1576001600160a01b0385163b15612be5576040517f1626ba7e00000000000000000000000000000000000000000000000000000000808252906001600160a01b03871690631626ba7e90612b1b9086908890600401613cce565b60206040518083038186803b158015612b3357600080fd5b505afa158015612b47573d6000803e3d6000fd5b505050506040513d601f19601f82011682018060405250810190612b6b91906138da565b7bffffffffffffffffffffffffffffffffffffffffffffffffffffffff1916146040518060400160405280601c81526020017f7369676e617475726520766572696669636174696f6e206572726f720000000081525090612bdf5760405162461bcd60e51b81526004016104f59190613ce7565b506118a1565b604080518082018252601c81527f7369676e617475726520766572696669636174696f6e206572726f72000000006020820152905162461bcd60e51b81526104f59190600401613ce7565b612c3a8383612e54565b612c4760008484846127e8565b6106485760405162461bcd60e51b815260206004820152603260248201527f4552433732313a207472616e7366657220746f206e6f6e20455243373231526560448201527131b2b4bb32b91034b6b83632b6b2b73a32b960711b60648201526084016104f5565b7f11de1ed290ef7c79f0112213bdb47a9e423f83e4878a1d730a7a48c35065794d8282604051612cdf929190613cfa565b60405180910390a15050565b600054610100900460ff16612d565760405162461bcd60e51b815260206004820152602b60248201527f496e697469616c697a61626c653a20636f6e7472616374206973206e6f74206960448201526a6e697469616c697a696e6760a81b60648201526084016104f5565b815160209283012081519190920120609791909155609855565b60006103e8612d7d612fcf565b836040517f19010000000000000000000000000000000000000000000000000000000000006020820152602281018390526042810182905260009060620160405160208183030381529060405280519060200120905092915050565b60008151604114612e2c5760405162461bcd60e51b815260206004820152601f60248201527f45434453413a20696e76616c6964207369676e6174757265206c656e6774680060448201526064016104f5565b60208201516040830151606084015160001a612e4a8682858561304f565b9695505050505050565b6001600160a01b038216612eaa5760405162461bcd60e51b815260206004820181905260248201527f4552433732313a206d696e7420746f20746865207a65726f206164647265737360448201526064016104f5565b6000818152610103602052604090205460ff1615612f0a5760405162461bcd60e51b815260206004820152601460248201527f746f6b656e20616c7265616479206275726e656400000000000000000000000060448201526064016104f5565b600081815260ff60205260409020546001600160a01b031615612f6f5760405162461bcd60e51b815260206004820152601c60248201527f4552433732313a20746f6b656e20616c7265616479206d696e7465640000000060448201526064016104f5565b6001600160a01b038216600090815261010060205260408120805460019290612f99908490613db4565b9091555050600081815260ff6020526040902080546001600160a01b0319166001600160a01b0384161790556106b182826132fb565b600061304a7f8b73c3c69bb8fe3d512ecc4cf759cc79239f7b179b0ffacaa9a75d522b39400f612ffe60975490565b6098546040805160208101859052908101839052606081018290524660808201523060a082015260009060c0016040516020818303038152906040528051906020012090509392505050565b905090565b60007f7fffffffffffffffffffffffffffffff5d576e7357a4501ddfe92f46681b20a08211156130cc5760405162461bcd60e51b815260206004820152602260248201527f45434453413a20696e76616c6964207369676e6174757265202773272076616c604482015261756560f01b60648201526084016104f5565b6000601e8560ff1611156131d0576130e5600486613de3565b60ff16601b148061310357506130fc600486613de3565b60ff16601c145b61315a5760405162461bcd60e51b815260206004820152602260248201527f45434453413a20696e76616c6964207369676e6174757265202776272076616c604482015261756560f01b60648201526084016104f5565b600161316587613305565b613170600488613de3565b6040805160008152602081018083529390935260ff90911690820152606081018690526080810185905260a0016020604051602081039080840390855afa1580156131bf573d6000803e3d6000fd5b50505060206040510351905061329c565b8460ff16601b14806131e557508460ff16601c145b61323c5760405162461bcd60e51b815260206004820152602260248201527f45434453413a20696e76616c6964207369676e6174757265202776272076616c604482015261756560f01b60648201526084016104f5565b60408051600081526020810180835288905260ff871691810191909152606081018590526080810184905260019060a0016020604051602081039080840390855afa15801561328f573d6000803e3d6000fd5b5050506020604051035190505b6001600160a01b0381166132f25760405162461bcd60e51b815260206004820152601860248201527f45434453413a20696e76616c6964207369676e6174757265000000000000000060448201526064016104f5565b95945050505050565b6106b18282613340565b6040517f19457468657265756d205369676e6564204d6573736167653a0a3332000000006020820152603c8101829052600090605c01612a66565b606081901c6001600160a01b03831681146133d35760405182906001600160a01b038316906000907fddf252ad1be2c89b69c2b068fc378daa952ba7f163c4a11628f55a4df523b3ef908290a481836001600160a01b0316826001600160a01b03167fddf252ad1be2c89b69c2b068fc378daa952ba7f163c4a11628f55a4df523b3ef60405160405180910390a4505050565b60405182906001600160a01b038516906000907fddf252ad1be2c89b69c2b068fc378daa952ba7f163c4a11628f55a4df523b3ef908290a4505050565b82805461341c90613e06565b90600052602060002090601f01602090048101928261343e5760008555613484565b82601f1061345757805160ff1916838001178555613484565b82800160010185558215613484579182015b82811115613484578251825591602001919060010190613469565b50613490929150613494565b5090565b5b808211156134905760008155600101613495565b80356001600160a01b03811681146134c057600080fd5b919050565b600082601f8301126134d5578081fd5b813560206134ea6134e583613d90565b613d5f565b80838252828201915082860187848660051b8901011115613509578586fd5b855b8581101561352e5761351c826134a9565b8452928401929084019060010161350b565b5090979650505050505050565b600082601f83011261354b578081fd5b8135602061355b6134e583613d90565b80838252828201915082860187848660051b890101111561357a578586fd5b855b8581101561352e57813567ffffffffffffffff81111561359a578788fd5b6135a88a87838c0101613641565b855250928401929084019060010161357c565b600082601f8301126135cb578081fd5b813560206135db6134e583613d90565b80838252828201915082860187848660061b89010111156135fa578586fd5b855b8581101561352e57604080838b031215613614578788fd5b61361c613d13565b613625846134a9565b81528387013587820152855293850193909101906001016135fc565b600082601f830112613651578081fd5b813567ffffffffffffffff81111561366b5761366b613e72565b61367e601f8201601f1916602001613d5f565b818152846020838601011115613692578283fd5b816020850160208301379081016020019190915292915050565b600060a082840312156136bd578081fd5b6136c5613d3c565b905081358152602082013567ffffffffffffffff808211156136e657600080fd5b6136f285838601613641565b6020840152604084013591508082111561370b57600080fd5b613717858386016135bb565b6040840152606084013591508082111561373057600080fd5b61373c858386016135bb565b6060840152608084013591508082111561375557600080fd5b506137628482850161353b565b60808301525092915050565b60006020828403121561377f578081fd5b610fe0826134a9565b6000806040838503121561379a578081fd5b6137a3836134a9565b91506137b1602084016134a9565b90509250929050565b6000806000606084860312156137ce578081fd5b6137d7846134a9565b92506137e5602085016134a9565b9150604084013590509250925092565b6000806000806080858703121561380a578081fd5b613813856134a9565b9350613821602086016134a9565b925060408501359150606085013567ffffffffffffffff811115613843578182fd5b61384f87828801613641565b91505092959194509250565b6000806040838503121561386d578182fd5b613876836134a9565b91506020830135801515811461388a578182fd5b809150509250929050565b600080604083850312156138a7578182fd5b6138b0836134a9565b946020939093013593505050565b6000602082840312156138cf578081fd5b8135610fe081613e88565b6000602082840312156138eb578081fd5b8151610fe081613e88565b60008060008060008060c0878903121561390e578384fd5b863567ffffffffffffffff80821115613925578586fd5b6139318a838b01613641565b97506020890135915080821115613946578586fd5b6139528a838b01613641565b96506040890135915080821115613967578586fd5b6139738a838b01613641565b95506060890135915080821115613988578384fd5b5061399589828a01613641565b9350506139a4608088016134a9565b91506139b260a088016134a9565b90509295509295509295565b600080600080600080600060e0888a0312156139d8578485fd5b873567ffffffffffffffff808211156139ef578687fd5b6139fb8b838c01613641565b985060208a0135915080821115613a10578687fd5b613a1c8b838c01613641565b975060408a0135915080821115613a31578687fd5b613a3d8b838c01613641565b965060608a0135915080821115613a52578283fd5b613a5e8b838c01613641565b955060808a0135915080821115613a73578283fd5b50613a808a828b016134c5565b935050613a8f60a089016134a9565b9150613a9d60c089016134a9565b905092959891949750929550565b60008060408385031215613abd578182fd5b823567ffffffffffffffff811115613ad3578283fd5b613adf858286016136ac565b9250506137b1602084016134a9565b600080600060608486031215613b02578081fd5b833567ffffffffffffffff811115613b18578182fd5b613b24868287016136ac565b935050613b33602085016134a9565b9150613b41604085016134a9565b90509250925092565b600060208284031215613b5b578081fd5b5035919050565b600080600060608486031215613b76578081fd5b83359250613b33602085016134a9565b6000815180845260208085019450808401835b83811015613bc957815180516001600160a01b031688528301518388015260409096019590820190600101613b99565b509495945050505050565b60008151808452815b81811015613bf957602081850181015186830182015201613bdd565b81811115613c0a5782602083870101525b50601f01601f19169290920160200192915050565b815160009082906020808601845b83811015613c4957815185529382019390820190600101613c2d565b50929695505050505050565b60006001600160a01b03808716835280861660208401525083604083015260806060830152612e4a6080830184613bd4565b6001600160a01b0384168152606060208201526000613ca96060830185613bd4565b8281036040840152612e4a8185613bd4565b602081526000610fe06020830184613b86565b8281526040602082015260006129396040830184613bd4565b602081526000610fe06020830184613bd4565b8281526040602082015260006129396040830184613b86565b6040805190810167ffffffffffffffff81118282101715613d3657613d36613e72565b60405290565b60405160a0810167ffffffffffffffff81118282101715613d3657613d36613e72565b604051601f8201601f1916810167ffffffffffffffff81118282101715613d8857613d88613e72565b604052919050565b600067ffffffffffffffff821115613daa57613daa613e72565b5060051b60200190565b60008219821115613dc757613dc7613e5c565b500190565b600082821015613dde57613dde613e5c565b500390565b600060ff821660ff841680821015613dfd57613dfd613e5c565b90039392505050565b600181811c90821680613e1a57607f821691505b60208210811415613e3b57634e487b7160e01b600052602260045260246000fd5b50919050565b6000600019821415613e5557613e55613e5c565b5060010190565b634e487b7160e01b600052601160045260246000fd5b634e487b7160e01b600052604160045260246000fd5b6001600160e01b0319811681146108be57600080fdfea26469706673582212206466291fdfb9bd900e134caa8acc174b72e57484e62e9d29b737e899a5c807c264736f6c63430008040033",
  "linkReferences": {},
  "deployedLinkReferences": {}
}